{"abi":[{"type":"constructor","inputs":[],"stateMutability":"nonpayable"},{"type":"function","name":"EIP712_RAV_TYPEHASH","inputs":[],"outputs":[{"name":"","type":"bytes32","internalType":"bytes32"}],"stateMutability":"view"},{"type":"function","name":"domainSeparator","inputs":[],"outputs":[{"name":"","type":"bytes32","internalType":"bytes32"}],"stateMutability":"view"},{"type":"function","name":"eip712Domain","inputs":[],"outputs":[{"name":"fields","type":"bytes1","internalType":"bytes1"},{"name":"name","type":"string","internalType":"string"},{"name":"version","type":"string","internalType":"string"},{"name":"chainId","type":"uint256","internalType":"uint256"},{"name":"verifyingContract","type":"address","internalType":"address"},{"name":"salt","type":"bytes32","internalType":"bytes32"},{"name":"extensions","type":"uint256[]","internalType":"uint256[]"}],"stateMutability":"view"},{"type":"function","name":"encodeRAV","inputs":[{"name":"rav","type":"tuple","internalType":"struct GraphTallyVerifier.ReceiptAggregateVoucher","components":[{"name":"collectionId","type":"bytes32","internalType":"bytes32"},{"name":"payer","type":"address","internalType":"address"},{"name":"serviceProvider","type":"address","internalType":"address"},{"name":"dataService","type":"address","internalType":"address"},{"name":"timestampNs","type":"uint64","internalType":"uint64"},{"name":"valueAggregate","type":"uint128","internalType":"uint128"},{"name":"metadata","type":"bytes","internalType":"bytes"}]}],"outputs":[{"name":"","type":"bytes32","internalType":"bytes32"}],"stateMutability":"view"},{"type":"function","name":"recoverRAVSigner","inputs":[{"name":"signedRAV","type":"tuple","internalType":"struct GraphTallyVerifier.SignedRAV","components":[{"name":"rav","type":"tuple","internalType":"struct GraphTallyVerifier.ReceiptAggregateVoucher","components":[{"name":"collectionId","type":"bytes32","internalType":"bytes32"},{"name":"payer","type":"address","internalType":"address"},{"name":"serviceProvider","type":"address","internalType":"address"},{"name":"dataService","type":"address","internalType":"address"},{"name":"timestampNs","type":"uint64","internalType":"uint64"},{"name":"valueAggregate","type":"uint128","internalType":"uint128"},{"name":"metadata","type":"bytes","internalType":"bytes"}]},{"name":"signature","type":"bytes","internalType":"bytes"}]}],"outputs":[{"name":"","type":"address","internalType":"address"}],"stateMutability":"view"},{"type":"function","name":"structHash","inputs":[{"name":"rav","type":"tuple","internalType":"struct GraphTallyVerifier.ReceiptAggregateVoucher","components":[{"name":"collectionId","type":"bytes32","internalType":"bytes32"},{"name":"payer","type":"address","internalType":"address"},{"name":"serviceProvider","type":"address","internalType":"address"},{"name":"dataService","type":"address","internalType":"address"},{"name":"timestampNs","type":"uint64","internalType":"uint64"},{"name":"valueAggregate","type":"uint128","internalType":"uint128"},{"name":"metadata","type":"bytes","internalType":"bytes"}]}],"outputs":[{"name":"","type":"bytes32","internalType":"bytes32"}],"stateMutability":"pure"},{"type":"event","name":"EIP712DomainChanged","inputs":[],"anonymous":false},{"type":"error","name":"ECDSAInvalidSignature","inputs":[]},{"type":"error","name":"ECDSAInvalidSignatureLength","inputs":[{"name":"length","type":"uint256","internalType":"uint256"}]},{"type":"error","name":"ECDSAInvalidSignatureS","inputs":[{"name":"s","type":"bytes32","internalType":"bytes32"}]},{"type":"error","name":"InvalidShortString","inputs":[]},{"type":"error","name":"StringTooLong","inputs":[{"name":"str","type":"string","internalType":"string"}]}],"bytecode":{"object":"0x610160604052348015610010575f5ffd5b506040518060400160405280601381526020017f477261706854616c6c79436f6c6c6563746f72000000000000000000000000008152506040518060400160405280600181526020017f31000000000000000000000000000000000000000000000000000000000000008152506100905f8361012b60201b90919060201c565b61012081815250506100ac60018261012b60201b90919060201c565b6101408181525050818051906020012060e08181525050808051906020012061010081815250504660a081815250506100e961017860201b60201c565b608081815250503073ffffffffffffffffffffffffffffffffffffffff1660c08173ffffffffffffffffffffffffffffffffffffffff1681525050505061071c565b5f60208351101561014c57610145836101d260201b60201c565b9050610172565b8261015c8361023760201b60201c565b5f01908161016a919061047d565b5060ff5f1b90505b92915050565b5f7f8b73c3c69bb8fe3d512ecc4cf759cc79239f7b179b0ffacaa9a75d522b39400f60e0516101005146306040516020016101b79594939291906105b2565b60405160208183030381529060405280519060200120905090565b5f5f829050601f8151111561021e57826040517f305a27a90000000000000000000000000000000000000000000000000000000081526004016102159190610669565b60405180910390fd5b80518161022a906106b6565b5f1c175f1b915050919050565b5f819050919050565b5f81519050919050565b7f4e487b71000000000000000000000000000000000000000000000000000000005f52604160045260245ffd5b7f4e487b71000000000000000000000000000000000000000000000000000000005f52602260045260245ffd5b5f60028204905060018216806102bb57607f821691505b6020821081036102ce576102cd610277565b5b50919050565b5f819050815f5260205f209050919050565b5f6020601f8301049050919050565b5f82821b905092915050565b5f600883026103307fffffffffffffffffffffffffffffffffffffffffffffffffffffffffffffffff826102f5565b61033a86836102f5565b95508019841693508086168417925050509392505050565b5f819050919050565b5f819050919050565b5f61037e61037961037484610352565b61035b565b610352565b9050919050565b5f819050919050565b61039783610364565b6103ab6103a382610385565b848454610301565b825550505050565b5f5f905090565b6103c26103b3565b6103cd81848461038e565b505050565b5b818110156103f0576103e55f826103ba565b6001810190506103d3565b5050565b601f82111561043557610406816102d4565b61040f846102e6565b8101602085101561041e578190505b61043261042a856102e6565b8301826103d2565b50505b505050565b5f82821c905092915050565b5f6104555f198460080261043a565b1980831691505092915050565b5f61046d8383610446565b9150826002028217905092915050565b61048682610240565b67ffffffffffffffff81111561049f5761049e61024a565b5b6104a982546102a4565b6104b48282856103f4565b5f60209050601f8311600181146104e5575f84156104d3578287015190505b6104dd8582610462565b865550610544565b601f1984166104f3866102d4565b5f5b8281101561051a578489015182556001820191506020850194506020810190506104f5565b868310156105375784890151610533601f891682610446565b8355505b6001600288020188555050505b505050505050565b5f819050919050565b61055e8161054c565b82525050565b61056d81610352565b82525050565b5f73ffffffffffffffffffffffffffffffffffffffff82169050919050565b5f61059c82610573565b9050919050565b6105ac81610592565b82525050565b5f60a0820190506105c55f830188610555565b6105d26020830187610555565b6105df6040830186610555565b6105ec6060830185610564565b6105f960808301846105a3565b9695505050505050565b5f82825260208201905092915050565b8281835e5f83830152505050565b5f601f19601f8301169050919050565b5f61063b82610240565b6106458185610603565b9350610655818560208601610613565b61065e81610621565b840191505092915050565b5f6020820190508181035f8301526106818184610631565b905092915050565b5f81519050919050565b5f819050602082019050919050565b5f6106ad825161054c565b80915050919050565b5f6106c082610689565b826106ca84610693565b90506106d5816106a2565b92506020821015610715576107107fffffffffffffffffffffffffffffffffffffffffffffffffffffffffffffffff836020036008026102f5565b831692505b5050919050565b60805160a05160c05160e05161010051610120516101405161144a61076d5f395f61049f01525f61046401525f61084901525f61082801525f6104d401525f61052a01525f610553015261144a5ff3fe608060405234801561000f575f5ffd5b5060043610610060575f3560e01c806326969c4c14610064578063636488171461009457806384b0196e146100c45780639a47c32d146100e8578063a7cc98b914610118578063f698da2514610136575b5f5ffd5b61007e60048036038101906100799190610ab3565b610154565b60405161008b9190610b12565b60405180910390f35b6100ae60048036038101906100a99190610b49565b61016e565b6040516100bb9190610bcf565b60405180910390f35b6100cc6101f5565b6040516100df9796959493929190610d61565b60405180910390f35b61010260048036038101906100fd9190610ab3565b61029a565b60405161010f9190610b12565b60405180910390f35b610120610379565b60405161012d9190610b12565b60405180910390f35b61013e61039d565b60405161014b9190610b12565b60405180910390f35b5f61016782610162906110ba565b6103ab565b9050919050565b5f5f61019083805f019061018291906110d8565b61018b906110ba565b6103ab565b90506101ed818480602001906101a691906110ff565b8080601f0160208091040260200160405190810160405280939291908181526020018383808284375f81840152601f19601f82011690508083019250505050505050610432565b915050919050565b5f6060805f5f5f606061020661045c565b61020e610496565b46305f5f1b5f67ffffffffffffffff81111561022d5761022c610de7565b5b60405190808252806020026020018201604052801561025b5781602001602082028036833780820191505090505b507f0f00000000000000000000000000000000000000000000000000000000000000959493929190965096509650965096509650965090919293949596565b5f7f2f8962be843489018f0fe44aa06adfead655e3c10d7347a020040f9524f392d3825f01358360200160208101906102d39190611161565b8460400160208101906102e69190611161565b8560600160208101906102f99190611161565b86608001602081019061030c919061118c565b8760a001602081019061031f91906111b7565b888060c0019061032f91906110ff565b60405161033d929190611210565b604051809103902060405160200161035c989796959493929190611246565b604051602081830303815290604052805190602001209050919050565b7f2f8962be843489018f0fe44aa06adfead655e3c10d7347a020040f9524f392d381565b5f6103a66104d1565b905090565b5f61042b7f2f8962be843489018f0fe44aa06adfead655e3c10d7347a020040f9524f392d3835f015184602001518560400151866060015187608001518860a001518960c0015180519060200120604051602001610410989796959493929190611246565b60405160208183030381529060405280519060200120610587565b9050919050565b5f5f5f5f61044086866105a0565b92509250925061045082826105f5565b82935050505092915050565b60606104915f7f000000000000000000000000000000000000000000000000000000000000000061075790919063ffffffff16565b905090565b60606104cc60017f000000000000000000000000000000000000000000000000000000000000000061075790919063ffffffff16565b905090565b5f7f000000000000000000000000000000000000000000000000000000000000000073ffffffffffffffffffffffffffffffffffffffff163073ffffffffffffffffffffffffffffffffffffffff1614801561054c57507f000000000000000000000000000000000000000000000000000000000000000046145b15610579577f00000000000000000000000000000000000000000000000000000000000000009050610584565b610581610804565b90505b90565b5f6105996105936104d1565b83610899565b9050919050565b5f5f5f60418451036105e0575f5f5f602087015192506040870151915060608701515f1a90506105d2888285856108d9565b9550955095505050506105ee565b5f600285515f1b9250925092505b9250925092565b5f6003811115610608576106076112c2565b5b82600381111561061b5761061a6112c2565b5b03156107535760016003811115610635576106346112c2565b5b826003811115610648576106476112c2565b5b0361067f576040517ff645eedf00000000000000000000000000000000000000000000000000000000815260040160405180910390fd5b60026003811115610693576106926112c2565b5b8260038111156106a6576106a56112c2565b5b036106ea57805f1c6040517ffce698f70000000000000000000000000000000000000000000000000000000081526004016106e191906112ef565b60405180910390fd5b6003808111156106fd576106fc6112c2565b5b8260038111156107105761070f6112c2565b5b0361075257806040517fd78bce0c0000000000000000000000000000000000000000000000000000000081526004016107499190610b12565b60405180910390fd5b5b5050565b606060ff5f1b83146107735761076c836109c0565b90506107fe565b81805461077f90611335565b80601f01602080910402602001604051908101604052809291908181526020018280546107ab90611335565b80156107f65780601f106107cd576101008083540402835291602001916107f6565b820191905f5260205f20905b8154815290600101906020018083116107d957829003601f168201915b505050505090505b92915050565b5f7f8b73c3c69bb8fe3d512ecc4cf759cc79239f7b179b0ffacaa9a75d522b39400f7f00000000000000000000000000000000000000000000000000000000000000007f0000000000000000000000000000000000000000000000000000000000000000463060405160200161087e959493929190611365565b60405160208183030381529060405280519060200120905090565b5f6040517f190100000000000000000000000000000000000000000000000000000000000081528360028201528260228201526042812091505092915050565b5f5f5f7f7fffffffffffffffffffffffffffffff5d576e7357a4501ddfe92f46681b20a0845f1c1115610915575f6003859250925092506109b6565b5f6001888888886040515f815260200160405260405161093894939291906113d1565b6020604051602081039080840390855afa158015610958573d5f5f3e3d5ffd5b5050506020604051035190505f73ffffffffffffffffffffffffffffffffffffffff168173ffffffffffffffffffffffffffffffffffffffff16036109a9575f60015f5f1b935093509350506109b6565b805f5f5f1b935093509350505b9450945094915050565b60605f6109cc83610a32565b90505f602067ffffffffffffffff8111156109ea576109e9610de7565b5b6040519080825280601f01601f191660200182016040528015610a1c5781602001600182028036833780820191505090505b5090508181528360208201528092505050919050565b5f5f60ff835f1c169050601f811115610a77576040517fb3512b0c00000000000000000000000000000000000000000000000000000000815260040160405180910390fd5b80915050919050565b5f604051905090565b5f5ffd5b5f5ffd5b5f5ffd5b5f60e08284031215610aaa57610aa9610a91565b5b81905092915050565b5f60208284031215610ac857610ac7610a89565b5b5f82013567ffffffffffffffff811115610ae557610ae4610a8d565b5b610af184828501610a95565b91505092915050565b5f819050919050565b610b0c81610afa565b82525050565b5f602082019050610b255f830184610b03565b92915050565b5f60408284031215610b4057610b3f610a91565b5b81905092915050565b5f60208284031215610b5e57610b5d610a89565b5b5f82013567ffffffffffffffff811115610b7b57610b7a610a8d565b5b610b8784828501610b2b565b91505092915050565b5f73ffffffffffffffffffffffffffffffffffffffff82169050919050565b5f610bb982610b90565b9050919050565b610bc981610baf565b82525050565b5f602082019050610be25f830184610bc0565b92915050565b5f7fff0000000000000000000000000000000000000000000000000000000000000082169050919050565b610c1c81610be8565b82525050565b5f81519050919050565b5f82825260208201905092915050565b8281835e5f83830152505050565b5f601f19601f8301169050919050565b5f610c6482610c22565b610c6e8185610c2c565b9350610c7e818560208601610c3c565b610c8781610c4a565b840191505092915050565b5f819050919050565b610ca481610c92565b82525050565b5f81519050919050565b5f82825260208201905092915050565b5f819050602082019050919050565b610cdc81610c92565b82525050565b5f610ced8383610cd3565b60208301905092915050565b5f602082019050919050565b5f610d0f82610caa565b610d198185610cb4565b9350610d2483610cc4565b805f5b83811015610d54578151610d3b8882610ce2565b9750610d4683610cf9565b925050600181019050610d27565b5085935050505092915050565b5f60e082019050610d745f83018a610c13565b8181036020830152610d868189610c5a565b90508181036040830152610d9a8188610c5a565b9050610da96060830187610c9b565b610db66080830186610bc0565b610dc360a0830185610b03565b81810360c0830152610dd58184610d05565b905098975050505050505050565b5f5ffd5b7f4e487b71000000000000000000000000000000000000000000000000000000005f52604160045260245ffd5b610e1d82610c4a565b810181811067ffffffffffffffff82111715610e3c57610e3b610de7565b5b80604052505050565b5f610e4e610a80565b9050610e5a8282610e14565b919050565b5f5ffd5b610e6c81610afa565b8114610e76575f5ffd5b50565b5f81359050610e8781610e63565b92915050565b610e9681610baf565b8114610ea0575f5ffd5b50565b5f81359050610eb181610e8d565b92915050565b5f67ffffffffffffffff82169050919050565b610ed381610eb7565b8114610edd575f5ffd5b50565b5f81359050610eee81610eca565b92915050565b5f6fffffffffffffffffffffffffffffffff82169050919050565b610f1881610ef4565b8114610f22575f5ffd5b50565b5f81359050610f3381610f0f565b92915050565b5f5ffd5b5f5ffd5b5f67ffffffffffffffff821115610f5b57610f5a610de7565b5b610f6482610c4a565b9050602081019050919050565b828183375f83830152505050565b5f610f91610f8c84610f41565b610e45565b905082815260208101848484011115610fad57610fac610f3d565b5b610fb8848285610f71565b509392505050565b5f82601f830112610fd457610fd3610f39565b5b8135610fe4848260208601610f7f565b91505092915050565b5f60e0828403121561100257611001610de3565b5b61100c60e0610e45565b90505f61101b84828501610e79565b5f83015250602061102e84828501610ea3565b602083015250604061104284828501610ea3565b604083015250606061105684828501610ea3565b606083015250608061106a84828501610ee0565b60808301525060a061107e84828501610f25565b60a08301525060c082013567ffffffffffffffff8111156110a2576110a1610e5f565b5b6110ae84828501610fc0565b60c08301525092915050565b5f6110c53683610fed565b9050919050565b5f5ffd5b5f5ffd5b5f5ffd5b5f8235600160e0038336030381126110f3576110f26110cc565b5b80830191505092915050565b5f5f8335600160200384360303811261111b5761111a6110cc565b5b80840192508235915067ffffffffffffffff82111561113d5761113c6110d0565b5b602083019250600182023603831315611159576111586110d4565b5b509250929050565b5f6020828403121561117657611175610a89565b5b5f61118384828501610ea3565b91505092915050565b5f602082840312156111a1576111a0610a89565b5b5f6111ae84828501610ee0565b91505092915050565b5f602082840312156111cc576111cb610a89565b5b5f6111d984828501610f25565b91505092915050565b5f81905092915050565b5f6111f783856111e2565b9350611204838584610f71565b82840190509392505050565b5f61121c8284866111ec565b91508190509392505050565b61123181610eb7565b82525050565b61124081610ef4565b82525050565b5f6101008201905061125a5f83018b610b03565b611267602083018a610b03565b6112746040830189610bc0565b6112816060830188610bc0565b61128e6080830187610bc0565b61129b60a0830186611228565b6112a860c0830185611237565b6112b560e0830184610b03565b9998505050505050505050565b7f4e487b71000000000000000000000000000000000000000000000000000000005f52602160045260245ffd5b5f6020820190506113025f830184610c9b565b92915050565b7f4e487b71000000000000000000000000000000000000000000000000000000005f52602260045260245ffd5b5f600282049050600182168061134c57607f821691505b60208210810361135f5761135e611308565b5b50919050565b5f60a0820190506113785f830188610b03565b6113856020830187610b03565b6113926040830186610b03565b61139f6060830185610c9b565b6113ac6080830184610bc0565b9695505050505050565b5f60ff82169050919050565b6113cb816113b6565b82525050565b5f6080820190506113e45f830187610b03565b6113f160208301866113c2565b6113fe6040830185610b03565b61140b6060830184610b03565b9594505050505056fea26469706673582212200e08dee46b7a8e5e55c5d8df2113c07c779673fac73ba36ae2ba4dd91e44178d64736f6c634300081b0033","linkReferences":{}},"methodIdentifiers":{"EIP712_RAV_TYPEHASH()":"a7cc98b9","domainSeparator()":"f698da25","eip712Domain()":"84b0196e","encodeRAV((bytes32,address,address,address,uint64,uint128,bytes))":"26969c4c","recoverRAVSigner(((bytes32,address,address,address,uint64,uint128,bytes),bytes))":"63648817","structHash((bytes32,address,address,address,uint64,uint128,bytes))":"9a47c32d"},"id":39}