{"abi":[{"type":"constructor","inputs":[{"name":"eip712Name","type":"string","internalType":"string"},{"name":"eip712Version","type":"string","internalType":"string"},{"name":"controller","type":"address","internalType":"address"},{"name":"revokeSignerThawingPeriod","type":"uint256","internalType":"uint256"}],"stateMutability":"nonpayable"},{"type":"function","name":"authorizeSigner","inputs":[{"name":"signer","type":"address","internalType":"address"}],"outputs":[],"stateMutability":"nonpayable"},{"type":"function","name":"cancelThaw","inputs":[{"name":"signer","type":"address","internalType":"address"}],"outputs":[],"stateMutability":"nonpayable"},{"type":"function","name":"collect","inputs":[{"name":"_paymentType","type":"uint8","internalType":"uint8"},{"name":"_data","type":"bytes","internalType":"bytes"}],"outputs":[{"name":"","type":"uint256","internalType":"uint256"}],"stateMutability":"nonpayable"},{"type":"function","name":"domainSeparator","inputs":[],"outputs":[{"name":"","type":"bytes32","internalType":"bytes32"}],"stateMutability":"view"},{"type":"function","name":"eip712Domain","inputs":[],"outputs":[{"name":"fields","type":"bytes1","internalType":"bytes1"},{"name":"name","type":"string","internalType":"string"},{"name":"version","type":"string","internalType":"string"},{"name":"chainId","type":"uint256","internalType":"uint256"},{"name":"verifyingContract","type":"address","internalType":"address"},{"name":"salt","type":"bytes32","internalType":"bytes32"},{"name":"extensions","type":"uint256[]","internalType":"uint256[]"}],"stateMutability":"view"},{"type":"function","name":"encodeRAV","inputs":[{"name":"rav","type":"tuple","internalType":"struct GraphTallyCollectorFull.ReceiptAggregateVoucher","components":[{"name":"collectionId","type":"bytes32","internalType":"bytes32"},{"name":"payer","type":"address","internalType":"address"},{"name":"serviceProvider","type":"address","internalType":"address"},{"name":"dataService","type":"address","internalType":"address"},{"name":"timestampNs","type":"uint64","internalType":"uint64"},{"name":"valueAggregate","type":"uint128","internalType":"uint128"},{"name":"metadata","type":"bytes","internalType":"bytes"}]}],"outputs":[{"name":"","type":"bytes32","internalType":"bytes32"}],"stateMutability":"view"},{"type":"function","name":"isAuthorized","inputs":[{"name":"authorizer","type":"address","internalType":"address"},{"name":"signer","type":"address","internalType":"address"}],"outputs":[{"name":"","type":"bool","internalType":"bool"}],"stateMutability":"view"},{"type":"function","name":"recoverRAVSigner","inputs":[{"name":"signedRAV","type":"tuple","internalType":"struct GraphTallyCollectorFull.SignedRAV","components":[{"name":"rav","type":"tuple","internalType":"struct GraphTallyCollectorFull.ReceiptAggregateVoucher","components":[{"name":"collectionId","type":"bytes32","internalType":"bytes32"},{"name":"payer","type":"address","internalType":"address"},{"name":"serviceProvider","type":"address","internalType":"address"},{"name":"dataService","type":"address","internalType":"address"},{"name":"timestampNs","type":"uint64","internalType":"uint64"},{"name":"valueAggregate","type":"uint128","internalType":"uint128"},{"name":"metadata","type":"bytes","internalType":"bytes"}]},{"name":"signature","type":"bytes","internalType":"bytes"}]}],"outputs":[{"name":"","type":"address","internalType":"address"}],"stateMutability":"view"},{"type":"function","name":"revokeSigner","inputs":[{"name":"signer","type":"address","internalType":"address"}],"outputs":[],"stateMutability":"nonpayable"},{"type":"function","name":"revokeSignerThawingPeriod","inputs":[],"outputs":[{"name":"","type":"uint256","internalType":"uint256"}],"stateMutability":"view"},{"type":"function","name":"thawSigner","inputs":[{"name":"signer","type":"address","internalType":"address"}],"outputs":[],"stateMutability":"nonpayable"},{"type":"function","name":"tokensCollected","inputs":[{"name":"dataService","type":"address","internalType":"address"},{"name":"collectionId","type":"bytes32","internalType":"bytes32"},{"name":"receiver","type":"address","internalType":"address"},{"name":"payer","type":"address","internalType":"address"}],"outputs":[{"name":"tokens","type":"uint256","internalType":"uint256"}],"stateMutability":"view"},{"type":"event","name":"EIP712DomainChanged","inputs":[],"anonymous":false},{"type":"event","name":"PaymentCollected","inputs":[{"name":"paymentType","type":"uint8","indexed":true,"internalType":"uint8"},{"name":"collectionId","type":"bytes32","indexed":true,"internalType":"bytes32"},{"name":"payer","type":"address","indexed":true,"internalType":"address"},{"name":"receiver","type":"address","indexed":false,"internalType":"address"},{"name":"dataService","type":"address","indexed":false,"internalType":"address"},{"name":"tokens","type":"uint256","indexed":false,"internalType":"uint256"}],"anonymous":false},{"type":"event","name":"RAVCollected","inputs":[{"name":"collectionId","type":"bytes32","indexed":true,"internalType":"bytes32"},{"name":"payer","type":"address","indexed":true,"internalType":"address"},{"name":"receiver","type":"address","indexed":true,"internalType":"address"},{"name":"dataService","type":"address","indexed":false,"internalType":"address"},{"name":"timestampNs","type":"uint64","indexed":false,"internalType":"uint64"},{"name":"valueAggregate","type":"uint128","indexed":false,"internalType":"uint128"},{"name":"metadata","type":"bytes","indexed":false,"internalType":"bytes"},{"name":"signature","type":"bytes","indexed":false,"internalType":"bytes"}],"anonymous":false},{"type":"event","name":"SignerAuthorizationRevoked","inputs":[{"name":"authorizer","type":"address","indexed":true,"internalType":"address"},{"name":"authorized","type":"address","indexed":true,"internalType":"address"}],"anonymous":false},{"type":"event","name":"SignerAuthorized","inputs":[{"name":"authorizer","type":"address","indexed":true,"internalType":"address"},{"name":"authorized","type":"address","indexed":true,"internalType":"address"}],"anonymous":false},{"type":"event","name":"SignerThawing","inputs":[{"name":"authorizer","type":"address","indexed":true,"internalType":"address"},{"name":"thawing","type":"address","indexed":true,"internalType":"address"},{"name":"thawingUntil","type":"uint256","indexed":false,"internalType":"uint256"}],"anonymous":false},{"type":"error","name":"AuthorizableAlreadyThawing","inputs":[{"name":"signer","type":"address","internalType":"address"}]},{"type":"error","name":"AuthorizableNotThawing","inputs":[{"name":"signer","type":"address","internalType":"address"}]},{"type":"error","name":"AuthorizableSignerAlreadyAuthorized","inputs":[{"name":"signer","type":"address","internalType":"address"}]},{"type":"error","name":"AuthorizableSignerNotAuthorized","inputs":[{"name":"signer","type":"address","internalType":"address"}]},{"type":"error","name":"AuthorizableStillThawing","inputs":[{"name":"signer","type":"address","internalType":"address"},{"name":"thawingUntil","type":"uint256","internalType":"uint256"}]},{"type":"error","name":"ECDSAInvalidSignature","inputs":[]},{"type":"error","name":"ECDSAInvalidSignatureLength","inputs":[{"name":"length","type":"uint256","internalType":"uint256"}]},{"type":"error","name":"ECDSAInvalidSignatureS","inputs":[{"name":"s","type":"bytes32","internalType":"bytes32"}]},{"type":"error","name":"GraphDirectoryInvalidZeroAddress","inputs":[{"name":"contractName","type":"bytes","internalType":"bytes"}]},{"type":"error","name":"GraphTallyCollectorCallerNotDataService","inputs":[{"name":"caller","type":"address","internalType":"address"},{"name":"dataService","type":"address","internalType":"address"}]},{"type":"error","name":"GraphTallyCollectorInconsistentRAVTokens","inputs":[{"name":"ravTokens","type":"uint256","internalType":"uint256"},{"name":"alreadyCollected","type":"uint256","internalType":"uint256"}]},{"type":"error","name":"GraphTallyCollectorInvalidRAVSigner","inputs":[]},{"type":"error","name":"GraphTallyCollectorInvalidTokensToCollectAmount","inputs":[{"name":"tokensToCollect","type":"uint256","internalType":"uint256"},{"name":"availableTokens","type":"uint256","internalType":"uint256"}]},{"type":"error","name":"GraphTallyCollectorUnauthorizedDataService","inputs":[{"name":"dataService","type":"address","internalType":"address"}]},{"type":"error","name":"InvalidShortString","inputs":[]},{"type":"error","name":"StringTooLong","inputs":[{"name":"str","type":"string","internalType":"string"}]}],"bytecode":{"object":"0x6101e0604052348015610010575f5ffd5b5060405161385d38038061385d8339818101604052810190610032919061079e565b808285856100495f836104af60201b90919060201c565b61012081815250506100656001826104af60201b90919060201c565b6101408181525050818051906020012060e08181525050808051906020012061010081815250504660a081815250506100a26104fc60201b60201c565b608081815250503073ffffffffffffffffffffffffffffffffffffffff1660c08173ffffffffffffffffffffffffffffffffffffffff168152505050505f8190508073ffffffffffffffffffffffffffffffffffffffff1663f7641a5e7f45fc200c7e4544e457d3c5709bfe0d520442c30bbcbdaede89e8d4a4bbc192476040518263ffffffff1660e01b815260040161013c9190610852565b602060405180830381865afa158015610157573d5f5f3e3d5ffd5b505050506040513d601f19601f8201168201806040525081019061017b919061086b565b73ffffffffffffffffffffffffffffffffffffffff166101608173ffffffffffffffffffffffffffffffffffffffff16815250508073ffffffffffffffffffffffffffffffffffffffff1663f7641a5e7f3da4267fcc27b0359fbe4fa8be9009a21f1056df5ebb9619d02c6df6167925966040518263ffffffff1660e01b81526004016102089190610852565b602060405180830381865afa158015610223573d5f5f3e3d5ffd5b505050506040513d601f19601f82011682018060405250810190610247919061086b565b73ffffffffffffffffffffffffffffffffffffffff166101808173ffffffffffffffffffffffffffffffffffffffff16815250508073ffffffffffffffffffffffffffffffffffffffff1663f7641a5e7f628f67391f8b955553cabfadbf5f1b6a31d2a2d0fea175f5594af9d40b0bedc96040518263ffffffff1660e01b81526004016102d49190610852565b602060405180830381865afa1580156102ef573d5f5f3e3d5ffd5b505050506040513d601f19601f82011682018060405250810190610313919061086b565b73ffffffffffffffffffffffffffffffffffffffff166101a08173ffffffffffffffffffffffffffffffffffffffff16815250505f73ffffffffffffffffffffffffffffffffffffffff166101605173ffffffffffffffffffffffffffffffffffffffff16036103b8576040517f431eb5ba0000000000000000000000000000000000000000000000000000000081526004016103af906108f0565b60405180910390fd5b5f73ffffffffffffffffffffffffffffffffffffffff166101805173ffffffffffffffffffffffffffffffffffffffff1603610429576040517f431eb5ba00000000000000000000000000000000000000000000000000000000815260040161042090610958565b60405180910390fd5b5f73ffffffffffffffffffffffffffffffffffffffff166101a05173ffffffffffffffffffffffffffffffffffffffff160361049a576040517f431eb5ba000000000000000000000000000000000000000000000000000000008152600401610491906109c0565b60405180910390fd5b5050806101c081815250505050505050610e1e565b5f6020835110156104d0576104c98361055660201b60201c565b90506104f6565b826104e0836105bb60201b60201c565b5f0190816104ee9190610be5565b5060ff5f1b90505b92915050565b5f7f8b73c3c69bb8fe3d512ecc4cf759cc79239f7b179b0ffacaa9a75d522b39400f60e05161010051463060405160200161053b959493929190610cd2565b60405160208183030381529060405280519060200120905090565b5f5f829050601f815111156105a257826040517f305a27a90000000000000000000000000000000000000000000000000000000081526004016105999190610d6b565b60405180910390fd5b8051816105ae90610db8565b5f1c175f1b915050919050565b5f819050919050565b5f604051905090565b5f5ffd5b5f5ffd5b5f5ffd5b5f5ffd5b5f601f19601f8301169050919050565b7f4e487b71000000000000000000000000000000000000000000000000000000005f52604160045260245ffd5b610623826105dd565b810181811067ffffffffffffffff82111715610642576106416105ed565b5b80604052505050565b5f6106546105c4565b9050610660828261061a565b919050565b5f67ffffffffffffffff82111561067f5761067e6105ed565b5b610688826105dd565b9050602081019050919050565b8281835e5f83830152505050565b5f6106b56106b084610665565b61064b565b9050828152602081018484840111156106d1576106d06105d9565b5b6106dc848285610695565b509392505050565b5f82601f8301126106f8576106f76105d5565b5b81516107088482602086016106a3565b91505092915050565b5f73ffffffffffffffffffffffffffffffffffffffff82169050919050565b5f61073a82610711565b9050919050565b61074a81610730565b8114610754575f5ffd5b50565b5f8151905061076581610741565b92915050565b5f819050919050565b61077d8161076b565b8114610787575f5ffd5b50565b5f8151905061079881610774565b92915050565b5f5f5f5f608085870312156107b6576107b56105cd565b5b5f85015167ffffffffffffffff8111156107d3576107d26105d1565b5b6107df878288016106e4565b945050602085015167ffffffffffffffff811115610800576107ff6105d1565b5b61080c878288016106e4565b935050604061081d87828801610757565b925050606061082e8782880161078a565b91505092959194509250565b5f819050919050565b61084c8161083a565b82525050565b5f6020820190506108655f830184610843565b92915050565b5f602082840312156108805761087f6105cd565b5b5f61088d84828501610757565b91505092915050565b5f82825260208201905092915050565b7f4772617068546f6b656e000000000000000000000000000000000000000000005f82015250565b5f6108da600a83610896565b91506108e5826108a6565b602082019050919050565b5f6020820190508181035f830152610907816108ce565b9050919050565b7f486f72697a6f6e5374616b696e670000000000000000000000000000000000005f82015250565b5f610942600e83610896565b915061094d8261090e565b602082019050919050565b5f6020820190508181035f83015261096f81610936565b9050919050565b7f5061796d656e7473457363726f770000000000000000000000000000000000005f82015250565b5f6109aa600e83610896565b91506109b582610976565b602082019050919050565b5f6020820190508181035f8301526109d78161099e565b9050919050565b5f81519050919050565b7f4e487b71000000000000000000000000000000000000000000000000000000005f52602260045260245ffd5b5f6002820490506001821680610a2c57607f821691505b602082108103610a3f57610a3e6109e8565b5b50919050565b5f819050815f5260205f209050919050565b5f6020601f8301049050919050565b5f82821b905092915050565b5f60088302610aa17fffffffffffffffffffffffffffffffffffffffffffffffffffffffffffffffff82610a66565b610aab8683610a66565b95508019841693508086168417925050509392505050565b5f819050919050565b5f610ae6610ae1610adc8461076b565b610ac3565b61076b565b9050919050565b5f819050919050565b610aff83610acc565b610b13610b0b82610aed565b848454610a72565b825550505050565b5f5f905090565b610b2a610b1b565b610b35818484610af6565b505050565b5b81811015610b5857610b4d5f82610b22565b600181019050610b3b565b5050565b601f821115610b9d57610b6e81610a45565b610b7784610a57565b81016020851015610b86578190505b610b9a610b9285610a57565b830182610b3a565b50505b505050565b5f82821c905092915050565b5f610bbd5f1984600802610ba2565b1980831691505092915050565b5f610bd58383610bae565b9150826002028217905092915050565b610bee826109de565b67ffffffffffffffff811115610c0757610c066105ed565b5b610c118254610a15565b610c1c828285610b5c565b5f60209050601f831160018114610c4d575f8415610c3b578287015190505b610c458582610bca565b865550610cac565b601f198416610c5b86610a45565b5f5b82811015610c8257848901518255600182019150602085019450602081019050610c5d565b86831015610c9f5784890151610c9b601f891682610bae565b8355505b6001600288020188555050505b505050505050565b610cbd8161076b565b82525050565b610ccc81610730565b82525050565b5f60a082019050610ce55f830188610843565b610cf26020830187610843565b610cff6040830186610843565b610d0c6060830185610cb4565b610d196080830184610cc3565b9695505050505050565b5f82825260208201905092915050565b5f610d3d826109de565b610d478185610d23565b9350610d57818560208601610695565b610d60816105dd565b840191505092915050565b5f6020820190508181035f830152610d838184610d33565b905092915050565b5f81519050919050565b5f819050602082019050919050565b5f610daf825161083a565b80915050919050565b5f610dc282610d8b565b82610dcc84610d95565b9050610dd781610da4565b92506020821015610e1757610e127fffffffffffffffffffffffffffffffffffffffffffffffffffffffffffffffff83602003600802610a66565b831692505b5050919050565b60805160a05160c05160e05161010051610120516101405161016051610180516101a0516101c0516129c2610e9b5f395f81816103ff0152610d1a01525f61166a01525f61164301525f50505f6114c301525f61148801525f61178001525f61175f01525f6114f801525f61154e01525f61157701526129c25ff3fe608060405234801561000f575f5ffd5b50600436106100b2575f3560e01c80637f07d2831161006f5780637f07d283146101ae57806384b0196e146101de578063bfe51c1014610202578063c34b44a01461021e578063d780b2621461023a578063f698da2514610258576100b2565b80631354f019146100b6578063181250ff146100d257806326969c4c146101025780633236fb4914610132578063636488171461014e57806365e4ad9e1461017e575b5f5ffd5b6100d060048036038101906100cb9190611bd9565b610276565b005b6100ec60048036038101906100e79190611c37565b610511565b6040516100f99190611cb3565b60405180910390f35b61011c60048036038101906101179190611cee565b610547565b6040516101299190611d44565b60405180910390f35b61014c60048036038101906101479190611bd9565b610561565b005b61016860048036038101906101639190611d7b565b61069d565b6040516101759190611dd1565b60405180910390f35b61019860048036038101906101939190611dea565b6106b7565b6040516101a59190611e42565b60405180910390f35b6101c860048036038101906101c39190611ef2565b6106ca565b6040516101d59190611cb3565b60405180910390f35b6101e66106e0565b6040516101f997969594939291906120b0565b60405180910390f35b61021c60048036038101906102179190611bd9565b610785565b005b61023860048036038101906102339190611bd9565b6109b6565b005b610242610d18565b60405161024f9190611cb3565b60405180910390f35b610260610d3c565b60405161026d9190611d44565b60405180910390f35b60025f3373ffffffffffffffffffffffffffffffffffffffff1673ffffffffffffffffffffffffffffffffffffffff1681526020019081526020015f205f8273ffffffffffffffffffffffffffffffffffffffff1673ffffffffffffffffffffffffffffffffffffffff1681526020019081526020015f205f9054906101000a900460ff16819061033d576040517ff166bd110000000000000000000000000000000000000000000000000000000081526004016103349190611dd1565b60405180910390fd5b505f60035f3373ffffffffffffffffffffffffffffffffffffffff1673ffffffffffffffffffffffffffffffffffffffff1681526020019081526020015f205f8373ffffffffffffffffffffffffffffffffffffffff1673ffffffffffffffffffffffffffffffffffffffff1681526020019081526020015f20541481906103fb576040517f2c201ba50000000000000000000000000000000000000000000000000000000081526004016103f29190611dd1565b60405180910390fd5b505f7f000000000000000000000000000000000000000000000000000000000000000042610429919061215f565b90508060035f3373ffffffffffffffffffffffffffffffffffffffff1673ffffffffffffffffffffffffffffffffffffffff1681526020019081526020015f205f8473ffffffffffffffffffffffffffffffffffffffff1673ffffffffffffffffffffffffffffffffffffffff1681526020019081526020015f20819055508173ffffffffffffffffffffffffffffffffffffffff163373ffffffffffffffffffffffffffffffffffffffff167fd939049941f6a15381248e4ac0010f15efdf0f3221923711244c200b5ff2cddf836040516105059190611cb3565b60405180910390a35050565b6004602052835f5260405f20602052825f5260405f20602052815f5260405f20602052805f5260405f205f935093505050505481565b5f61055a8261055590612411565b610d4a565b9050919050565b5f60035f3373ffffffffffffffffffffffffffffffffffffffff1673ffffffffffffffffffffffffffffffffffffffff1681526020019081526020015f205f8373ffffffffffffffffffffffffffffffffffffffff1673ffffffffffffffffffffffffffffffffffffffff1681526020019081526020015f205411819061061e576040517fed3171ff0000000000000000000000000000000000000000000000000000000081526004016106159190611dd1565b60405180910390fd5b5060035f3373ffffffffffffffffffffffffffffffffffffffff1673ffffffffffffffffffffffffffffffffffffffff1681526020019081526020015f205f8273ffffffffffffffffffffffffffffffffffffffff1673ffffffffffffffffffffffffffffffffffffffff1681526020019081526020015f205f905550565b5f6106b0826106ab906124a8565b610dd1565b9050919050565b5f6106c28383610df7565b905092915050565b5f6106d78484845f610ebb565b90509392505050565b5f6060805f5f5f60606106f1611480565b6106f96114ba565b46305f5f1b5f67ffffffffffffffff81111561071857610717612196565b5b6040519080825280602002602001820160405280156107465781602001602082028036833780820191505090505b507f0f00000000000000000000000000000000000000000000000000000000000000959493929190965096509650965096509650965090919293949596565b60025f3373ffffffffffffffffffffffffffffffffffffffff1673ffffffffffffffffffffffffffffffffffffffff1681526020019081526020015f205f8273ffffffffffffffffffffffffffffffffffffffff1673ffffffffffffffffffffffffffffffffffffffff1681526020019081526020015f205f9054906101000a900460ff1615819061084d576040517f3481ff010000000000000000000000000000000000000000000000000000000081526004016108449190611dd1565b60405180910390fd5b50600160025f3373ffffffffffffffffffffffffffffffffffffffff1673ffffffffffffffffffffffffffffffffffffffff1681526020019081526020015f205f8373ffffffffffffffffffffffffffffffffffffffff1673ffffffffffffffffffffffffffffffffffffffff1681526020019081526020015f205f6101000a81548160ff02191690831515021790555060035f3373ffffffffffffffffffffffffffffffffffffffff1673ffffffffffffffffffffffffffffffffffffffff1681526020019081526020015f205f8273ffffffffffffffffffffffffffffffffffffffff1673ffffffffffffffffffffffffffffffffffffffff1681526020019081526020015f205f90558073ffffffffffffffffffffffffffffffffffffffff163373ffffffffffffffffffffffffffffffffffffffff167f6edcdd4150e63c6c36d965976c1c37375609c8b040c50d39e7156437b80e282860405160405180910390a350565b60025f3373ffffffffffffffffffffffffffffffffffffffff1673ffffffffffffffffffffffffffffffffffffffff1681526020019081526020015f205f8273ffffffffffffffffffffffffffffffffffffffff1673ffffffffffffffffffffffffffffffffffffffff1681526020019081526020015f205f9054906101000a900460ff168190610a7d576040517ff166bd11000000000000000000000000000000000000000000000000000000008152600401610a749190611dd1565b60405180910390fd5b504260035f3373ffffffffffffffffffffffffffffffffffffffff1673ffffffffffffffffffffffffffffffffffffffff1681526020019081526020015f205f8373ffffffffffffffffffffffffffffffffffffffff1673ffffffffffffffffffffffffffffffffffffffff1681526020019081526020015f205411158160035f3373ffffffffffffffffffffffffffffffffffffffff1673ffffffffffffffffffffffffffffffffffffffff1681526020019081526020015f205f8473ffffffffffffffffffffffffffffffffffffffff1673ffffffffffffffffffffffffffffffffffffffff1681526020019081526020015f20549091610bb7576040517f21b8f7f2000000000000000000000000000000000000000000000000000000008152600401610bae9291906124ba565b60405180910390fd5b505060025f3373ffffffffffffffffffffffffffffffffffffffff1673ffffffffffffffffffffffffffffffffffffffff1681526020019081526020015f205f8273ffffffffffffffffffffffffffffffffffffffff1673ffffffffffffffffffffffffffffffffffffffff1681526020019081526020015f205f6101000a81549060ff021916905560035f3373ffffffffffffffffffffffffffffffffffffffff1673ffffffffffffffffffffffffffffffffffffffff1681526020019081526020015f205f8273ffffffffffffffffffffffffffffffffffffffff1673ffffffffffffffffffffffffffffffffffffffff1681526020019081526020015f205f90558073ffffffffffffffffffffffffffffffffffffffff163373ffffffffffffffffffffffffffffffffffffffff167f6c7bd5a472ac2ea86725d720aba5bd769f431b4d4327bebbfe8d89b48090346e60405160405180910390a350565b7f000000000000000000000000000000000000000000000000000000000000000081565b5f610d456114f5565b905090565b5f610dca7f2f8962be843489018f0fe44aa06adfead655e3c10d7347a020040f9524f392d3835f015184602001518560400151866060015187608001518860a001518960c0015180519060200120604051602001610daf9897969594939291906124ff565b604051602081830303815290604052805190602001206115ab565b9050919050565b5f5f610ddf835f0151610d4a565b9050610def8184602001516115c4565b915050919050565b5f8173ffffffffffffffffffffffffffffffffffffffff168373ffffffffffffffffffffffffffffffffffffffff161480610eb3575060025f8473ffffffffffffffffffffffffffffffffffffffff1673ffffffffffffffffffffffffffffffffffffffff1681526020019081526020015f205f8373ffffffffffffffffffffffffffffffffffffffff1673ffffffffffffffffffffffffffffffffffffffff1681526020019081526020015f205f9054906101000a900460ff165b905092915050565b5f5f5f5f8686810190610ece91906125e0565b9250925092503373ffffffffffffffffffffffffffffffffffffffff16835f01516060015173ffffffffffffffffffffffffffffffffffffffff161433845f0151606001519091610f56576040517f56cbc92e000000000000000000000000000000000000000000000000000000008152600401610f4d92919061264c565b60405180910390fd5b5050610f61836115ee565b5f835f01515f015190505f845f01516060015190505f855f01516040015190505f610f8a611640565b73ffffffffffffffffffffffffffffffffffffffff166308ce5f68885f015160400151895f0151606001516040518363ffffffff1660e01b8152600401610fd292919061264c565b602060405180830381865afa158015610fed573d5f5f3e3d5ffd5b505050506040513d601f19601f820116820180604052508101906110119190612687565b90505f8111875f0151606001519061105f576040517fde8b47c00000000000000000000000000000000000000000000000000000000081526004016110569190611dd1565b60405180910390fd5b50505f5f90505f875f015160a001516fffffffffffffffffffffffffffffffff1690505f60045f8673ffffffffffffffffffffffffffffffffffffffff1673ffffffffffffffffffffffffffffffffffffffff1681526020019081526020015f205f8781526020019081526020015f205f8573ffffffffffffffffffffffffffffffffffffffff1673ffffffffffffffffffffffffffffffffffffffff1681526020019081526020015f205f8a5f01516020015173ffffffffffffffffffffffffffffffffffffffff1673ffffffffffffffffffffffffffffffffffffffff1681526020019081526020015f2054905080821182829091611197576040517f7007d4a100000000000000000000000000000000000000000000000000000000815260040161118e9291906126b2565b60405180910390fd5b50505f8b036111b35780826111ac91906126d9565b9250611218565b80826111bf91906126d9565b8b11158b82846111cf91906126d9565b9091611212576040517fc5602bb10000000000000000000000000000000000000000000000000000000081526004016112099291906126b2565b60405180910390fd5b50508a92505b50505f811115611382578060045f8573ffffffffffffffffffffffffffffffffffffffff1673ffffffffffffffffffffffffffffffffffffffff1681526020019081526020015f205f8681526020019081526020015f205f8473ffffffffffffffffffffffffffffffffffffffff1673ffffffffffffffffffffffffffffffffffffffff1681526020019081526020015f205f895f01516020015173ffffffffffffffffffffffffffffffffffffffff1673ffffffffffffffffffffffffffffffffffffffff1681526020019081526020015f205f8282546112fa919061215f565b92505081905550611309611667565b73ffffffffffffffffffffffffffffffffffffffff16631230fa3e8d895f0151602001518585888c8c6040518863ffffffff1660e01b8152600401611354979695949392919061271b565b5f604051808303815f87803b15801561136b575f5ffd5b505af115801561137d573d5f5f3e3d5ffd5b505050505b865f01516020015173ffffffffffffffffffffffffffffffffffffffff16848d60ff167f481a17595c709e8f745444fb9ffc8f0b5e98458de94463971947f548e12bbdb48587866040516113d893929190612788565b60405180910390a48173ffffffffffffffffffffffffffffffffffffffff16875f01516020015173ffffffffffffffffffffffffffffffffffffffff16857f3943fc3b19ec289c87b57de7a8bf1448d81ced03d1806144ecaca4ba9e976056868b5f0151608001518c5f015160a001518d5f015160c001518e6020015160405161146695949392919061280f565b60405180910390a480975050505050505050949350505050565b60606114b55f7f000000000000000000000000000000000000000000000000000000000000000061168e90919063ffffffff16565b905090565b60606114f060017f000000000000000000000000000000000000000000000000000000000000000061168e90919063ffffffff16565b905090565b5f7f000000000000000000000000000000000000000000000000000000000000000073ffffffffffffffffffffffffffffffffffffffff163073ffffffffffffffffffffffffffffffffffffffff1614801561157057507f000000000000000000000000000000000000000000000000000000000000000046145b1561159d577f000000000000000000000000000000000000000000000000000000000000000090506115a8565b6115a561173b565b90505b90565b5f6115bd6115b76114f5565b836117d0565b9050919050565b5f5f5f5f6115d28686611810565b9250925092506115e28282611865565b82935050505092915050565b611607815f01516020015161160283610dd1565b610df7565b61163d576040517faa415c3300000000000000000000000000000000000000000000000000000000815260040160405180910390fd5b50565b5f7f0000000000000000000000000000000000000000000000000000000000000000905090565b5f7f0000000000000000000000000000000000000000000000000000000000000000905090565b606060ff5f1b83146116aa576116a3836119c7565b9050611735565b8180546116b69061289b565b80601f01602080910402602001604051908101604052809291908181526020018280546116e29061289b565b801561172d5780601f106117045761010080835404028352916020019161172d565b820191905f5260205f20905b81548152906001019060200180831161171057829003601f168201915b505050505090505b92915050565b5f7f8b73c3c69bb8fe3d512ecc4cf759cc79239f7b179b0ffacaa9a75d522b39400f7f00000000000000000000000000000000000000000000000000000000000000007f000000000000000000000000000000000000000000000000000000000000000046306040516020016117b59594939291906128cb565b60405160208183030381529060405280519060200120905090565b5f6040517f190100000000000000000000000000000000000000000000000000000000000081528360028201528260228201526042812091505092915050565b5f5f5f6041845103611850575f5f5f602087015192506040870151915060608701515f1a905061184288828585611a39565b95509550955050505061185e565b5f600285515f1b9250925092505b9250925092565b5f60038111156118785761187761291c565b5b82600381111561188b5761188a61291c565b5b03156119c357600160038111156118a5576118a461291c565b5b8260038111156118b8576118b761291c565b5b036118ef576040517ff645eedf00000000000000000000000000000000000000000000000000000000815260040160405180910390fd5b600260038111156119035761190261291c565b5b8260038111156119165761191561291c565b5b0361195a57805f1c6040517ffce698f70000000000000000000000000000000000000000000000000000000081526004016119519190611cb3565b60405180910390fd5b60038081111561196d5761196c61291c565b5b8260038111156119805761197f61291c565b5b036119c257806040517fd78bce0c0000000000000000000000000000000000000000000000000000000081526004016119b99190611d44565b60405180910390fd5b5b5050565b60605f6119d383611b20565b90505f602067ffffffffffffffff8111156119f1576119f0612196565b5b6040519080825280601f01601f191660200182016040528015611a235781602001600182028036833780820191505090505b5090508181528360208201528092505050919050565b5f5f5f7f7fffffffffffffffffffffffffffffff5d576e7357a4501ddfe92f46681b20a0845f1c1115611a75575f600385925092509250611b16565b5f6001888888886040515f8152602001604052604051611a989493929190612949565b6020604051602081039080840390855afa158015611ab8573d5f5f3e3d5ffd5b5050506020604051035190505f73ffffffffffffffffffffffffffffffffffffffff168173ffffffffffffffffffffffffffffffffffffffff1603611b09575f60015f5f1b93509350935050611b16565b805f5f5f1b935093509350505b9450945094915050565b5f5f60ff835f1c169050601f811115611b65576040517fb3512b0c00000000000000000000000000000000000000000000000000000000815260040160405180910390fd5b80915050919050565b5f604051905090565b5f5ffd5b5f5ffd5b5f73ffffffffffffffffffffffffffffffffffffffff82169050919050565b5f611ba882611b7f565b9050919050565b611bb881611b9e565b8114611bc2575f5ffd5b50565b5f81359050611bd381611baf565b92915050565b5f60208284031215611bee57611bed611b77565b5b5f611bfb84828501611bc5565b91505092915050565b5f819050919050565b611c1681611c04565b8114611c20575f5ffd5b50565b5f81359050611c3181611c0d565b92915050565b5f5f5f5f60808587031215611c4f57611c4e611b77565b5b5f611c5c87828801611bc5565b9450506020611c6d87828801611c23565b9350506040611c7e87828801611bc5565b9250506060611c8f87828801611bc5565b91505092959194509250565b5f819050919050565b611cad81611c9b565b82525050565b5f602082019050611cc65f830184611ca4565b92915050565b5f5ffd5b5f60e08284031215611ce557611ce4611ccc565b5b81905092915050565b5f60208284031215611d0357611d02611b77565b5b5f82013567ffffffffffffffff811115611d2057611d1f611b7b565b5b611d2c84828501611cd0565b91505092915050565b611d3e81611c04565b82525050565b5f602082019050611d575f830184611d35565b92915050565b5f60408284031215611d7257611d71611ccc565b5b81905092915050565b5f60208284031215611d9057611d8f611b77565b5b5f82013567ffffffffffffffff811115611dad57611dac611b7b565b5b611db984828501611d5d565b91505092915050565b611dcb81611b9e565b82525050565b5f602082019050611de45f830184611dc2565b92915050565b5f5f60408385031215611e0057611dff611b77565b5b5f611e0d85828601611bc5565b9250506020611e1e85828601611bc5565b9150509250929050565b5f8115159050919050565b611e3c81611e28565b82525050565b5f602082019050611e555f830184611e33565b92915050565b5f60ff82169050919050565b611e7081611e5b565b8114611e7a575f5ffd5b50565b5f81359050611e8b81611e67565b92915050565b5f5ffd5b5f5ffd5b5f5ffd5b5f5f83601f840112611eb257611eb1611e91565b5b8235905067ffffffffffffffff811115611ecf57611ece611e95565b5b602083019150836001820283011115611eeb57611eea611e99565b5b9250929050565b5f5f5f60408486031215611f0957611f08611b77565b5b5f611f1686828701611e7d565b935050602084013567ffffffffffffffff811115611f3757611f36611b7b565b5b611f4386828701611e9d565b92509250509250925092565b5f7fff0000000000000000000000000000000000000000000000000000000000000082169050919050565b611f8381611f4f565b82525050565b5f81519050919050565b5f82825260208201905092915050565b8281835e5f83830152505050565b5f601f19601f8301169050919050565b5f611fcb82611f89565b611fd58185611f93565b9350611fe5818560208601611fa3565b611fee81611fb1565b840191505092915050565b5f81519050919050565b5f82825260208201905092915050565b5f819050602082019050919050565b61202b81611c9b565b82525050565b5f61203c8383612022565b60208301905092915050565b5f602082019050919050565b5f61205e82611ff9565b6120688185612003565b935061207383612013565b805f5b838110156120a357815161208a8882612031565b975061209583612048565b925050600181019050612076565b5085935050505092915050565b5f60e0820190506120c35f83018a611f7a565b81810360208301526120d58189611fc1565b905081810360408301526120e98188611fc1565b90506120f86060830187611ca4565b6121056080830186611dc2565b61211260a0830185611d35565b81810360c08301526121248184612054565b905098975050505050505050565b7f4e487b71000000000000000000000000000000000000000000000000000000005f52601160045260245ffd5b5f61216982611c9b565b915061217483611c9b565b925082820190508082111561218c5761218b612132565b5b92915050565b5f5ffd5b7f4e487b71000000000000000000000000000000000000000000000000000000005f52604160045260245ffd5b6121cc82611fb1565b810181811067ffffffffffffffff821117156121eb576121ea612196565b5b80604052505050565b5f6121fd611b6e565b905061220982826121c3565b919050565b5f5ffd5b5f67ffffffffffffffff82169050919050565b61222e81612212565b8114612238575f5ffd5b50565b5f8135905061224981612225565b92915050565b5f6fffffffffffffffffffffffffffffffff82169050919050565b6122738161224f565b811461227d575f5ffd5b50565b5f8135905061228e8161226a565b92915050565b5f5ffd5b5f67ffffffffffffffff8211156122b2576122b1612196565b5b6122bb82611fb1565b9050602081019050919050565b828183375f83830152505050565b5f6122e86122e384612298565b6121f4565b90508281526020810184848401111561230457612303612294565b5b61230f8482856122c8565b509392505050565b5f82601f83011261232b5761232a611e91565b5b813561233b8482602086016122d6565b91505092915050565b5f60e0828403121561235957612358612192565b5b61236360e06121f4565b90505f61237284828501611c23565b5f83015250602061238584828501611bc5565b602083015250604061239984828501611bc5565b60408301525060606123ad84828501611bc5565b60608301525060806123c18482850161223b565b60808301525060a06123d584828501612280565b60a08301525060c082013567ffffffffffffffff8111156123f9576123f861220e565b5b61240584828501612317565b60c08301525092915050565b5f61241c3683612344565b9050919050565b5f6040828403121561243857612437612192565b5b61244260406121f4565b90505f82013567ffffffffffffffff8111156124615761246061220e565b5b61246d84828501612344565b5f83015250602082013567ffffffffffffffff8111156124905761248f61220e565b5b61249c84828501612317565b60208301525092915050565b5f6124b33683612423565b9050919050565b5f6040820190506124cd5f830185611dc2565b6124da6020830184611ca4565b9392505050565b6124ea81612212565b82525050565b6124f98161224f565b82525050565b5f610100820190506125135f83018b611d35565b612520602083018a611d35565b61252d6040830189611dc2565b61253a6060830188611dc2565b6125476080830187611dc2565b61255460a08301866124e1565b61256160c08301856124f0565b61256e60e0830184611d35565b9998505050505050505050565b61258481611c9b565b811461258e575f5ffd5b50565b5f8135905061259f8161257b565b92915050565b5f6125af82611b7f565b9050919050565b6125bf816125a5565b81146125c9575f5ffd5b50565b5f813590506125da816125b6565b92915050565b5f5f5f606084860312156125f7576125f6611b77565b5b5f84013567ffffffffffffffff81111561261457612613611b7b565b5b61262086828701612423565b935050602061263186828701612591565b9250506040612642868287016125cc565b9150509250925092565b5f60408201905061265f5f830185611dc2565b61266c6020830184611dc2565b9392505050565b5f815190506126818161257b565b92915050565b5f6020828403121561269c5761269b611b77565b5b5f6126a984828501612673565b91505092915050565b5f6040820190506126c55f830185611ca4565b6126d26020830184611ca4565b9392505050565b5f6126e382611c9b565b91506126ee83611c9b565b925082820390508181111561270657612705612132565b5b92915050565b61271581611e5b565b82525050565b5f60e08201905061272e5f83018a61270c565b61273b6020830189611dc2565b6127486040830188611dc2565b6127556060830187611ca4565b6127626080830186611dc2565b61276f60a0830185611ca4565b61277c60c0830184611dc2565b98975050505050505050565b5f60608201905061279b5f830186611dc2565b6127a86020830185611dc2565b6127b56040830184611ca4565b949350505050565b5f81519050919050565b5f82825260208201905092915050565b5f6127e1826127bd565b6127eb81856127c7565b93506127fb818560208601611fa3565b61280481611fb1565b840191505092915050565b5f60a0820190506128225f830188611dc2565b61282f60208301876124e1565b61283c60408301866124f0565b818103606083015261284e81856127d7565b9050818103608083015261286281846127d7565b90509695505050505050565b7f4e487b71000000000000000000000000000000000000000000000000000000005f52602260045260245ffd5b5f60028204905060018216806128b257607f821691505b6020821081036128c5576128c461286e565b5b50919050565b5f60a0820190506128de5f830188611d35565b6128eb6020830187611d35565b6128f86040830186611d35565b6129056060830185611ca4565b6129126080830184611dc2565b9695505050505050565b7f4e487b71000000000000000000000000000000000000000000000000000000005f52602160045260245ffd5b5f60808201905061295c5f830187611d35565b612969602083018661270c565b6129766040830185611d35565b6129836060830184611d35565b9594505050505056fea26469706673582212205125060ea7d197393e7893b767f8d91c12df7e74140d129bb1300d331244f42764736f6c634300081b0033","linkReferences":{}},"methodIdentifiers":{"authorizeSigner(address)":"bfe51c10","cancelThaw(address)":"3236fb49","collect(uint8,bytes)":"7f07d283","domainSeparator()":"f698da25","eip712Domain()":"84b0196e","encodeRAV((bytes32,address,address,address,uint64,uint128,bytes))":"26969c4c","isAuthorized(address,address)":"65e4ad9e","recoverRAVSigner(((bytes32,address,address,address,uint64,uint128,bytes),bytes))":"63648817","revokeSigner(address)":"c34b44a0","revokeSignerThawingPeriod()":"d780b262","thawSigner(address)":"1354f019","tokensCollected(address,bytes32,address,address)":"181250ff"},"id":68}