{"abi":[{"type":"function","name":"collect","inputs":[{"name":"paymentType","type":"uint8","internalType":"uint8"},{"name":"data","type":"bytes","internalType":"bytes"}],"outputs":[{"name":"","type":"uint256","internalType":"uint256"}],"stateMutability":"nonpayable"}],"bytecode":{"object":"0x6080604052348015600e575f5ffd5b506101cb8061001c5f395ff3fe608060405234801561000f575f5ffd5b5060043610610029575f3560e01c80637f07d2831461002d575b5f5ffd5b61004760048036038101906100429190610107565b61005d565b604051610054919061017c565b60405180910390f35b5f5f90509392505050565b5f5ffd5b5f5ffd5b5f60ff82169050919050565b61008581610070565b811461008f575f5ffd5b50565b5f813590506100a08161007c565b92915050565b5f5ffd5b5f5ffd5b5f5ffd5b5f5f83601f8401126100c7576100c66100a6565b5b8235905067ffffffffffffffff8111156100e4576100e36100aa565b5b602083019150836001820283011115610100576100ff6100ae565b5b9250929050565b5f5f5f6040848603121561011e5761011d610068565b5b5f61012b86828701610092565b935050602084013567ffffffffffffffff81111561014c5761014b61006c565b5b610158868287016100b2565b92509250509250925092565b5f819050919050565b61017681610164565b82525050565b5f60208201905061018f5f83018461016d565b9291505056fea2646970667358221220b3649d5eb4ef07f832086b806de3a50d88facb201fc9ab46fe1520921b23c64064736f6c634300081b0033","linkReferences":{}},"methodIdentifiers":{"collect(uint8,bytes)":"7f07d283"},"id":40}