{"abi":[{"type":"constructor","inputs":[{"name":"_graphToken","type":"address","internalType":"address"}],"stateMutability":"nonpayable"},{"type":"function","name":"collect","inputs":[{"name":"","type":"uint8","internalType":"uint8"},{"name":"payer","type":"address","internalType":"address"},{"name":"receiver","type":"address","internalType":"address"},{"name":"amount","type":"uint256","internalType":"uint256"},{"name":"dataService","type":"address","internalType":"address"},{"name":"dataServiceCut","type":"uint256","internalType":"uint256"},{"name":"receiverDestination","type":"address","internalType":"address"}],"outputs":[],"stateMutability":"nonpayable"},{"type":"function","name":"deposit","inputs":[{"name":"sender","type":"address","internalType":"address"},{"name":"amount","type":"uint256","internalType":"uint256"}],"outputs":[],"stateMutability":"nonpayable"},{"type":"function","name":"getEscrowAmount","inputs":[{"name":"sender","type":"address","internalType":"address"},{"name":"receiver","type":"address","internalType":"address"}],"outputs":[{"name":"","type":"uint256","internalType":"uint256"}],"stateMutability":"view"},{"type":"function","name":"graphToken","inputs":[],"outputs":[{"name":"","type":"address","internalType":"contract IERC20"}],"stateMutability":"view"},{"type":"event","name":"Collected","inputs":[{"name":"payer","type":"address","indexed":true,"internalType":"address"},{"name":"receiver","type":"address","indexed":true,"internalType":"address"},{"name":"amount","type":"uint256","indexed":false,"internalType":"uint256"},{"name":"dataService","type":"address","indexed":true,"internalType":"address"},{"name":"dataServiceCut","type":"uint256","indexed":false,"internalType":"uint256"},{"name":"receiverDestination","type":"address","indexed":false,"internalType":"address"}],"anonymous":false},{"type":"event","name":"Deposited","inputs":[{"name":"sender","type":"address","indexed":true,"internalType":"address"},{"name":"receiver","type":"address","indexed":true,"internalType":"address"},{"name":"amount","type":"uint256","indexed":false,"internalType":"uint256"}],"anonymous":false}],"bytecode":{"object":"0x60a060405234801561000f575f5ffd5b50604051610f02380380610f02833981810160405281019061003191906100c9565b8073ffffffffffffffffffffffffffffffffffffffff1660808173ffffffffffffffffffffffffffffffffffffffff1681525050506100f4565b5f5ffd5b5f73ffffffffffffffffffffffffffffffffffffffff82169050919050565b5f6100988261006f565b9050919050565b6100a88161008e565b81146100b2575f5ffd5b50565b5f815190506100c38161009f565b92915050565b5f602082840312156100de576100dd61006b565b5b5f6100eb848285016100b5565b91505092915050565b608051610de16101215f395f818161025101528181610372015281816104d9015261072c0152610de15ff3fe608060405234801561000f575f5ffd5b506004361061004a575f3560e01c80631230fa3e1461004e57806347e7ef241461006a578063498df11614610086578063b430c5ea146100b6575b5f5ffd5b61006860048036038101906100639190610815565b6100d4565b005b610084600480360381019061007f91906108b2565b6104d7565b005b6100a0600480360381019061009b91906108f0565b6106a9565b6040516100ad919061093d565b60405180910390f35b6100be61072a565b6040516100cb91906109b1565b60405180910390f35b835f5f8873ffffffffffffffffffffffffffffffffffffffff1673ffffffffffffffffffffffffffffffffffffffff1681526020019081526020015f205f8873ffffffffffffffffffffffffffffffffffffffff1673ffffffffffffffffffffffffffffffffffffffff1681526020019081526020015f2054101561018e576040517f08c379a000000000000000000000000000000000000000000000000000000000815260040161018590610a24565b60405180910390fd5b835f5f8873ffffffffffffffffffffffffffffffffffffffff1673ffffffffffffffffffffffffffffffffffffffff1681526020019081526020015f205f8873ffffffffffffffffffffffffffffffffffffffff1673ffffffffffffffffffffffffffffffffffffffff1681526020019081526020015f205f8282546102149190610a6f565b925050819055505f620f4240838661022c9190610aa2565b6102369190610b10565b90505f81866102459190610a6f565b90505f82111561032a577f000000000000000000000000000000000000000000000000000000000000000073ffffffffffffffffffffffffffffffffffffffff1663a9059cbb86846040518363ffffffff1660e01b81526004016102aa929190610b4f565b6020604051808303815f875af11580156102c6573d5f5f3e3d5ffd5b505050506040513d601f19601f820116820180604052508101906102ea9190610bab565b610329576040517f08c379a000000000000000000000000000000000000000000000000000000000815260040161032090610c20565b60405180910390fd5b5b5f81111561044c575f5f73ffffffffffffffffffffffffffffffffffffffff168473ffffffffffffffffffffffffffffffffffffffff161461036c578361036e565b875b90507f000000000000000000000000000000000000000000000000000000000000000073ffffffffffffffffffffffffffffffffffffffff1663a9059cbb82846040518363ffffffff1660e01b81526004016103cb929190610b4f565b6020604051808303815f875af11580156103e7573d5f5f3e3d5ffd5b505050506040513d601f19601f8201168201806040525081019061040b9190610bab565b61044a576040517f08c379a000000000000000000000000000000000000000000000000000000000815260040161044190610c88565b60405180910390fd5b505b8473ffffffffffffffffffffffffffffffffffffffff168773ffffffffffffffffffffffffffffffffffffffff168973ffffffffffffffffffffffffffffffffffffffff167f51d3286c20a8750d021355c9a52622c8a9554564ae228d9bb84949d30ed59c0b8988886040516104c493929190610ca6565b60405180910390a4505050505050505050565b7f000000000000000000000000000000000000000000000000000000000000000073ffffffffffffffffffffffffffffffffffffffff166323b872dd3330846040518463ffffffff1660e01b815260040161053493929190610cdb565b6020604051808303815f875af1158015610550573d5f5f3e3d5ffd5b505050506040513d601f19601f820116820180604052508101906105749190610bab565b6105b3576040517f08c379a00000000000000000000000000000000000000000000000000000000081526004016105aa90610d5a565b60405180910390fd5b805f5f8473ffffffffffffffffffffffffffffffffffffffff1673ffffffffffffffffffffffffffffffffffffffff1681526020019081526020015f205f8473ffffffffffffffffffffffffffffffffffffffff1673ffffffffffffffffffffffffffffffffffffffff1681526020019081526020015f205f8282546106399190610d78565b925050819055508173ffffffffffffffffffffffffffffffffffffffff168273ffffffffffffffffffffffffffffffffffffffff167f8752a472e571a816aea92eec8dae9baf628e840f4929fbcc2d155e6233ff68a78360405161069d919061093d565b60405180910390a35050565b5f5f5f8473ffffffffffffffffffffffffffffffffffffffff1673ffffffffffffffffffffffffffffffffffffffff1681526020019081526020015f205f8373ffffffffffffffffffffffffffffffffffffffff1673ffffffffffffffffffffffffffffffffffffffff1681526020019081526020015f2054905092915050565b7f000000000000000000000000000000000000000000000000000000000000000081565b5f5ffd5b5f60ff82169050919050565b61076781610752565b8114610771575f5ffd5b50565b5f813590506107828161075e565b92915050565b5f73ffffffffffffffffffffffffffffffffffffffff82169050919050565b5f6107b182610788565b9050919050565b6107c1816107a7565b81146107cb575f5ffd5b50565b5f813590506107dc816107b8565b92915050565b5f819050919050565b6107f4816107e2565b81146107fe575f5ffd5b50565b5f8135905061080f816107eb565b92915050565b5f5f5f5f5f5f5f60e0888a0312156108305761082f61074e565b5b5f61083d8a828b01610774565b975050602061084e8a828b016107ce565b965050604061085f8a828b016107ce565b95505060606108708a828b01610801565b94505060806108818a828b016107ce565b93505060a06108928a828b01610801565b92505060c06108a38a828b016107ce565b91505092959891949750929550565b5f5f604083850312156108c8576108c761074e565b5b5f6108d5858286016107ce565b92505060206108e685828601610801565b9150509250929050565b5f5f604083850312156109065761090561074e565b5b5f610913858286016107ce565b9250506020610924858286016107ce565b9150509250929050565b610937816107e2565b82525050565b5f6020820190506109505f83018461092e565b92915050565b5f819050919050565b5f61097961097461096f84610788565b610956565b610788565b9050919050565b5f61098a8261095f565b9050919050565b5f61099b82610980565b9050919050565b6109ab81610991565b82525050565b5f6020820190506109c45f8301846109a2565b92915050565b5f82825260208201905092915050565b7f496e73756666696369656e7420657363726f772062616c616e636500000000005f82015250565b5f610a0e601b836109ca565b9150610a19826109da565b602082019050919050565b5f6020820190508181035f830152610a3b81610a02565b9050919050565b7f4e487b71000000000000000000000000000000000000000000000000000000005f52601160045260245ffd5b5f610a79826107e2565b9150610a84836107e2565b9250828203905081811115610a9c57610a9b610a42565b5b92915050565b5f610aac826107e2565b9150610ab7836107e2565b9250828202610ac5816107e2565b91508282048414831517610adc57610adb610a42565b5b5092915050565b7f4e487b71000000000000000000000000000000000000000000000000000000005f52601260045260245ffd5b5f610b1a826107e2565b9150610b25836107e2565b925082610b3557610b34610ae3565b5b828204905092915050565b610b49816107a7565b82525050565b5f604082019050610b625f830185610b40565b610b6f602083018461092e565b9392505050565b5f8115159050919050565b610b8a81610b76565b8114610b94575f5ffd5b50565b5f81519050610ba581610b81565b92915050565b5f60208284031215610bc057610bbf61074e565b5b5f610bcd84828501610b97565b91505092915050565b7f446174612073657276696365207472616e73666572206661696c6564000000005f82015250565b5f610c0a601c836109ca565b9150610c1582610bd6565b602082019050919050565b5f6020820190508181035f830152610c3781610bfe565b9050919050565b7f5265636569766572207472616e73666572206661696c656400000000000000005f82015250565b5f610c726018836109ca565b9150610c7d82610c3e565b602082019050919050565b5f6020820190508181035f830152610c9f81610c66565b9050919050565b5f606082019050610cb95f83018661092e565b610cc6602083018561092e565b610cd36040830184610b40565b949350505050565b5f606082019050610cee5f830186610b40565b610cfb6020830185610b40565b610d08604083018461092e565b949350505050565b7f5472616e73666572206661696c656400000000000000000000000000000000005f82015250565b5f610d44600f836109ca565b9150610d4f82610d10565b602082019050919050565b5f6020820190508181035f830152610d7181610d38565b9050919050565b5f610d82826107e2565b9150610d8d836107e2565b9250828201905080821115610da557610da4610a42565b5b9291505056fea264697066735822122039c1933865205dce4d0e846f7768e77cd10bd761fbc49c700d2868c9e44cc41d64736f6c634300081b0033","linkReferences":{}},"methodIdentifiers":{"collect(uint8,address,address,uint256,address,uint256,address)":"1230fa3e","deposit(address,uint256)":"47e7ef24","getEscrowAmount(address,address)":"498df116","graphToken()":"b430c5ea"},"id":40}