{"abi":[{"type":"function","name":"acceptProvisionParameters","inputs":[{"name":"serviceProvider","type":"address","internalType":"address"}],"outputs":[],"stateMutability":"nonpayable"},{"type":"function","name":"addToDelegationPool","inputs":[{"name":"serviceProvider","type":"address","internalType":"address"},{"name":"dataService","type":"address","internalType":"address"},{"name":"tokens","type":"uint256","internalType":"uint256"}],"outputs":[],"stateMutability":"nonpayable"},{"type":"function","name":"getDelegationFeeCut","inputs":[{"name":"serviceProvider","type":"address","internalType":"address"},{"name":"dataService","type":"address","internalType":"address"},{"name":"paymentType","type":"uint8","internalType":"enum IGraphPayments.PaymentTypes"}],"outputs":[{"name":"","type":"uint256","internalType":"uint256"}],"stateMutability":"view"},{"type":"function","name":"getDelegationPool","inputs":[{"name":"serviceProvider","type":"address","internalType":"address"},{"name":"dataService","type":"address","internalType":"address"}],"outputs":[{"name":"","type":"tuple","internalType":"struct IHorizonStakingTypes.DelegationPool","components":[{"name":"tokens","type":"uint256","internalType":"uint256"},{"name":"shares","type":"uint256","internalType":"uint256"},{"name":"tokensThawing","type":"uint256","internalType":"uint256"},{"name":"sharesThawing","type":"uint256","internalType":"uint256"},{"name":"thawingNonce","type":"uint256","internalType":"uint256"}]}],"stateMutability":"view"},{"type":"function","name":"getProviderTokensAvailable","inputs":[{"name":"serviceProvider","type":"address","internalType":"address"},{"name":"verifier","type":"address","internalType":"address"}],"outputs":[{"name":"","type":"uint256","internalType":"uint256"}],"stateMutability":"view"},{"type":"function","name":"getProvision","inputs":[{"name":"serviceProvider","type":"address","internalType":"address"},{"name":"dataService","type":"address","internalType":"address"}],"outputs":[{"name":"provision","type":"tuple","internalType":"struct IHorizonStakingTypes.Provision","components":[{"name":"tokens","type":"uint256","internalType":"uint256"},{"name":"tokensThawing","type":"uint256","internalType":"uint256"},{"name":"sharesThawing","type":"uint256","internalType":"uint256"},{"name":"maxVerifierCut","type":"uint32","internalType":"uint32"},{"name":"thawingPeriod","type":"uint64","internalType":"uint64"},{"name":"createdAt","type":"uint64","internalType":"uint64"},{"name":"maxVerifierCutPending","type":"uint32","internalType":"uint32"},{"name":"thawingPeriodPending","type":"uint64","internalType":"uint64"},{"name":"lastParametersStagedAt","type":"uint256","internalType":"uint256"},{"name":"thawingNonce","type":"uint256","internalType":"uint256"}]}],"stateMutability":"view"},{"type":"function","name":"isAuthorized","inputs":[{"name":"serviceProvider","type":"address","internalType":"address"},{"name":"dataService","type":"address","internalType":"address"},{"name":"caller","type":"address","internalType":"address"}],"outputs":[{"name":"","type":"bool","internalType":"bool"}],"stateMutability":"view"},{"type":"function","name":"setDelegationFeeCut","inputs":[{"name":"serviceProvider","type":"address","internalType":"address"},{"name":"dataService","type":"address","internalType":"address"},{"name":"paymentType","type":"uint8","internalType":"enum IGraphPayments.PaymentTypes"},{"name":"cut","type":"uint256","internalType":"uint256"}],"outputs":[],"stateMutability":"nonpayable"},{"type":"function","name":"setOperator","inputs":[{"name":"serviceProvider","type":"address","internalType":"address"},{"name":"dataService","type":"address","internalType":"address"},{"name":"operator","type":"address","internalType":"address"},{"name":"authorized","type":"bool","internalType":"bool"}],"outputs":[],"stateMutability":"nonpayable"},{"type":"function","name":"setProvision","inputs":[{"name":"serviceProvider","type":"address","internalType":"address"},{"name":"dataService","type":"address","internalType":"address"},{"name":"tokens","type":"uint256","internalType":"uint256"},{"name":"maxVerifierCut","type":"uint32","internalType":"uint32"},{"name":"thawingPeriod","type":"uint64","internalType":"uint64"}],"outputs":[],"stateMutability":"nonpayable"},{"type":"function","name":"stakeTo","inputs":[{"name":"serviceProvider","type":"address","internalType":"address"},{"name":"tokens","type":"uint256","internalType":"uint256"}],"outputs":[],"stateMutability":"nonpayable"}],"bytecode":{"object":"0x6080604052348015600e575f5ffd5b506114738061001c5f395ff3fe608060405234801561000f575f5ffd5b50600436106100a7575f3560e01c8063561285e41161006f578063561285e41461015f5780637573ef4f1461018f5780637c145cc7146101bf578063a2a31722146101ef578063ca94b0e91461020b578063d5f9a58f14610227576100a7565b806308ce5f68146100ab57806325d9897e146100db57806331aca9ed1461010b5780633a78b7321461012757806342c5169314610143575b5f5ffd5b6100c560048036038101906100c09190610dc6565b610243565b6040516100d29190610e1c565b60405180910390f35b6100f560048036038101906100f09190610dc6565b6102da565b6040516101029190610f4e565b60405180910390f35b61012560048036038101906101209190610f9d565b6104a8565b005b610141600480360381019061013c9190611001565b610578565b005b61015d60048036038101906101589190611079565b61066f565b005b61017960048036038101906101749190610dc6565b610725565b6040516101869190611143565b60405180910390f35b6101a960048036038101906101a4919061115c565b6107e9565b6040516101b69190610e1c565b60405180910390f35b6101d960048036038101906101d491906111ac565b61089f565b6040516101e6919061120b565b60405180910390f35b61020960048036038101906102049190611224565b6109a6565b005b61022560048036038101906102209190611262565b610a39565b005b610241600480360381019061023c9190611306565b610ace565b005b5f5f5f5f8573ffffffffffffffffffffffffffffffffffffffff1673ffffffffffffffffffffffffffffffffffffffff1681526020019081526020015f205f8473ffffffffffffffffffffffffffffffffffffffff1673ffffffffffffffffffffffffffffffffffffffff1681526020019081526020015f2090508060010154815f01546102d191906113aa565b91505092915050565b6102e2610ccb565b5f5f5f8573ffffffffffffffffffffffffffffffffffffffff1673ffffffffffffffffffffffffffffffffffffffff1681526020019081526020015f205f8473ffffffffffffffffffffffffffffffffffffffff1673ffffffffffffffffffffffffffffffffffffffff1681526020019081526020015f209050805f0154825f01818152505080600101548260200181815250508060020154826040018181525050806003015f9054906101000a900463ffffffff16826060019063ffffffff16908163ffffffff16815250508060030160049054906101000a900467ffffffffffffffff16826080019067ffffffffffffffff16908167ffffffffffffffff168152505080600301600c9054906101000a900467ffffffffffffffff168260a0019067ffffffffffffffff16908167ffffffffffffffff16815250508060030160149054906101000a900463ffffffff168260c0019063ffffffff16908163ffffffff16815250508060030160189054906101000a900467ffffffffffffffff168260e0019067ffffffffffffffff16908167ffffffffffffffff16815250508060040154826101000181815250508060050154826101200181815250505092915050565b8060035f8673ffffffffffffffffffffffffffffffffffffffff1673ffffffffffffffffffffffffffffffffffffffff1681526020019081526020015f205f8573ffffffffffffffffffffffffffffffffffffffff1673ffffffffffffffffffffffffffffffffffffffff1681526020019081526020015f205f8473ffffffffffffffffffffffffffffffffffffffff1673ffffffffffffffffffffffffffffffffffffffff1681526020019081526020015f205f6101000a81548160ff02191690831515021790555050505050565b5f5f5f8373ffffffffffffffffffffffffffffffffffffffff1673ffffffffffffffffffffffffffffffffffffffff1681526020019081526020015f205f3373ffffffffffffffffffffffffffffffffffffffff1673ffffffffffffffffffffffffffffffffffffffff1681526020019081526020015f2090508060030160149054906101000a900463ffffffff16816003015f6101000a81548163ffffffff021916908363ffffffff1602179055508060030160189054906101000a900467ffffffffffffffff168160030160046101000a81548167ffffffffffffffff021916908367ffffffffffffffff1602179055505050565b8060025f8673ffffffffffffffffffffffffffffffffffffffff1673ffffffffffffffffffffffffffffffffffffffff1681526020019081526020015f205f8573ffffffffffffffffffffffffffffffffffffffff1673ffffffffffffffffffffffffffffffffffffffff1681526020019081526020015f205f8460028111156106fc576106fb6113dd565b5b600281111561070e5761070d6113dd565b5b81526020019081526020015f208190555050505050565b61072d610d3e565b60015f8473ffffffffffffffffffffffffffffffffffffffff1673ffffffffffffffffffffffffffffffffffffffff1681526020019081526020015f205f8373ffffffffffffffffffffffffffffffffffffffff1673ffffffffffffffffffffffffffffffffffffffff1681526020019081526020015f206040518060a00160405290815f8201548152602001600182015481526020016002820154815260200160038201548152602001600482015481525050905092915050565b5f60025f8573ffffffffffffffffffffffffffffffffffffffff1673ffffffffffffffffffffffffffffffffffffffff1681526020019081526020015f205f8473ffffffffffffffffffffffffffffffffffffffff1673ffffffffffffffffffffffffffffffffffffffff1681526020019081526020015f205f836002811115610876576108756113dd565b5b6002811115610888576108876113dd565b5b81526020019081526020015f205490509392505050565b5f8373ffffffffffffffffffffffffffffffffffffffff168273ffffffffffffffffffffffffffffffffffffffff16036108dc576001905061099f565b60035f8573ffffffffffffffffffffffffffffffffffffffff1673ffffffffffffffffffffffffffffffffffffffff1681526020019081526020015f205f8473ffffffffffffffffffffffffffffffffffffffff1673ffffffffffffffffffffffffffffffffffffffff1681526020019081526020015f205f8373ffffffffffffffffffffffffffffffffffffffff1673ffffffffffffffffffffffffffffffffffffffff1681526020019081526020015f205f9054906101000a900460ff1690505b9392505050565b805f5f8473ffffffffffffffffffffffffffffffffffffffff1673ffffffffffffffffffffffffffffffffffffffff1681526020019081526020015f205f3373ffffffffffffffffffffffffffffffffffffffff1673ffffffffffffffffffffffffffffffffffffffff1681526020019081526020015f205f015f828254610a2e919061140a565b925050819055505050565b8060015f8573ffffffffffffffffffffffffffffffffffffffff1673ffffffffffffffffffffffffffffffffffffffff1681526020019081526020015f205f8473ffffffffffffffffffffffffffffffffffffffff1673ffffffffffffffffffffffffffffffffffffffff1681526020019081526020015f205f015f828254610ac2919061140a565b92505081905550505050565b6040518061014001604052808481526020015f81526020015f81526020018363ffffffff1681526020018267ffffffffffffffff1681526020014267ffffffffffffffff1681526020018363ffffffff1681526020018267ffffffffffffffff1681526020015f81526020015f8152505f5f8773ffffffffffffffffffffffffffffffffffffffff1673ffffffffffffffffffffffffffffffffffffffff1681526020019081526020015f205f8673ffffffffffffffffffffffffffffffffffffffff1673ffffffffffffffffffffffffffffffffffffffff1681526020019081526020015f205f820151815f015560208201518160010155604082015181600201556060820151816003015f6101000a81548163ffffffff021916908363ffffffff16021790555060808201518160030160046101000a81548167ffffffffffffffff021916908367ffffffffffffffff16021790555060a082015181600301600c6101000a81548167ffffffffffffffff021916908367ffffffffffffffff16021790555060c08201518160030160146101000a81548163ffffffff021916908363ffffffff16021790555060e08201518160030160186101000a81548167ffffffffffffffff021916908367ffffffffffffffff160217905550610100820151816004015561012082015181600501559050505050505050565b6040518061014001604052805f81526020015f81526020015f81526020015f63ffffffff1681526020015f67ffffffffffffffff1681526020015f67ffffffffffffffff1681526020015f63ffffffff1681526020015f67ffffffffffffffff1681526020015f81526020015f81525090565b6040518060a001604052805f81526020015f81526020015f81526020015f81526020015f81525090565b5f5ffd5b5f73ffffffffffffffffffffffffffffffffffffffff82169050919050565b5f610d9582610d6c565b9050919050565b610da581610d8b565b8114610daf575f5ffd5b50565b5f81359050610dc081610d9c565b92915050565b5f5f60408385031215610ddc57610ddb610d68565b5b5f610de985828601610db2565b9250506020610dfa85828601610db2565b9150509250929050565b5f819050919050565b610e1681610e04565b82525050565b5f602082019050610e2f5f830184610e0d565b92915050565b610e3e81610e04565b82525050565b5f63ffffffff82169050919050565b610e5c81610e44565b82525050565b5f67ffffffffffffffff82169050919050565b610e7e81610e62565b82525050565b61014082015f820151610e995f850182610e35565b506020820151610eac6020850182610e35565b506040820151610ebf6040850182610e35565b506060820151610ed26060850182610e53565b506080820151610ee56080850182610e75565b5060a0820151610ef860a0850182610e75565b5060c0820151610f0b60c0850182610e53565b5060e0820151610f1e60e0850182610e75565b50610100820151610f33610100850182610e35565b50610120820151610f48610120850182610e35565b50505050565b5f61014082019050610f625f830184610e84565b92915050565b5f8115159050919050565b610f7c81610f68565b8114610f86575f5ffd5b50565b5f81359050610f9781610f73565b92915050565b5f5f5f5f60808587031215610fb557610fb4610d68565b5b5f610fc287828801610db2565b9450506020610fd387828801610db2565b9350506040610fe487828801610db2565b9250506060610ff587828801610f89565b91505092959194509250565b5f6020828403121561101657611015610d68565b5b5f61102384828501610db2565b91505092915050565b60038110611038575f5ffd5b50565b5f813590506110498161102c565b92915050565b61105881610e04565b8114611062575f5ffd5b50565b5f813590506110738161104f565b92915050565b5f5f5f5f6080858703121561109157611090610d68565b5b5f61109e87828801610db2565b94505060206110af87828801610db2565b93505060406110c08782880161103b565b92505060606110d187828801611065565b91505092959194509250565b60a082015f8201516110f15f850182610e35565b5060208201516111046020850182610e35565b5060408201516111176040850182610e35565b50606082015161112a6060850182610e35565b50608082015161113d6080850182610e35565b50505050565b5f60a0820190506111565f8301846110dd565b92915050565b5f5f5f6060848603121561117357611172610d68565b5b5f61118086828701610db2565b935050602061119186828701610db2565b92505060406111a28682870161103b565b9150509250925092565b5f5f5f606084860312156111c3576111c2610d68565b5b5f6111d086828701610db2565b93505060206111e186828701610db2565b92505060406111f286828701610db2565b9150509250925092565b61120581610f68565b82525050565b5f60208201905061121e5f8301846111fc565b92915050565b5f5f6040838503121561123a57611239610d68565b5b5f61124785828601610db2565b925050602061125885828601611065565b9150509250929050565b5f5f5f6060848603121561127957611278610d68565b5b5f61128686828701610db2565b935050602061129786828701610db2565b92505060406112a886828701611065565b9150509250925092565b6112bb81610e44565b81146112c5575f5ffd5b50565b5f813590506112d6816112b2565b92915050565b6112e581610e62565b81146112ef575f5ffd5b50565b5f81359050611300816112dc565b92915050565b5f5f5f5f5f60a0868803121561131f5761131e610d68565b5b5f61132c88828901610db2565b955050602061133d88828901610db2565b945050604061134e88828901611065565b935050606061135f888289016112c8565b9250506080611370888289016112f2565b9150509295509295909350565b7f4e487b71000000000000000000000000000000000000000000000000000000005f52601160045260245ffd5b5f6113b482610e04565b91506113bf83610e04565b92508282039050818111156113d7576113d661137d565b5b92915050565b7f4e487b71000000000000000000000000000000000000000000000000000000005f52602160045260245ffd5b5f61141482610e04565b915061141f83610e04565b92508282019050808211156114375761143661137d565b5b9291505056fea2646970667358221220acc25e770903664392fe294d5579146ae573fde497bc3dd95799c6e1c9177e4164736f6c634300081b0033","linkReferences":{}},"methodIdentifiers":{"acceptProvisionParameters(address)":"3a78b732","addToDelegationPool(address,address,uint256)":"ca94b0e9","getDelegationFeeCut(address,address,uint8)":"7573ef4f","getDelegationPool(address,address)":"561285e4","getProviderTokensAvailable(address,address)":"08ce5f68","getProvision(address,address)":"25d9897e","isAuthorized(address,address,address)":"7c145cc7","setDelegationFeeCut(address,address,uint8,uint256)":"42c51693","setOperator(address,address,address,bool)":"31aca9ed","setProvision(address,address,uint256,uint32,uint64)":"d5f9a58f","stakeTo(address,uint256)":"a2a31722"},"id":70}