{"abi":[{"type":"constructor","inputs":[],"stateMutability":"nonpayable"},{"type":"function","name":"allowance","inputs":[{"name":"owner","type":"address","internalType":"address"},{"name":"spender","type":"address","internalType":"address"}],"outputs":[{"name":"","type":"uint256","internalType":"uint256"}],"stateMutability":"view"},{"type":"function","name":"approve","inputs":[{"name":"spender","type":"address","internalType":"address"},{"name":"value","type":"uint256","internalType":"uint256"}],"outputs":[{"name":"","type":"bool","internalType":"bool"}],"stateMutability":"nonpayable"},{"type":"function","name":"balanceOf","inputs":[{"name":"account","type":"address","internalType":"address"}],"outputs":[{"name":"","type":"uint256","internalType":"uint256"}],"stateMutability":"view"},{"type":"function","name":"burn","inputs":[{"name":"amount","type":"uint256","internalType":"uint256"}],"outputs":[],"stateMutability":"nonpayable"},{"type":"function","name":"burnFrom","inputs":[{"name":"from","type":"address","internalType":"address"},{"name":"amount","type":"uint256","internalType":"uint256"}],"outputs":[],"stateMutability":"nonpayable"},{"type":"function","name":"decimals","inputs":[],"outputs":[{"name":"","type":"uint8","internalType":"uint8"}],"stateMutability":"view"},{"type":"function","name":"mint","inputs":[{"name":"to","type":"address","internalType":"address"},{"name":"amount","type":"uint256","internalType":"uint256"}],"outputs":[],"stateMutability":"nonpayable"},{"type":"function","name":"name","inputs":[],"outputs":[{"name":"","type":"string","internalType":"string"}],"stateMutability":"view"},{"type":"function","name":"symbol","inputs":[],"outputs":[{"name":"","type":"string","internalType":"string"}],"stateMutability":"view"},{"type":"function","name":"totalSupply","inputs":[],"outputs":[{"name":"","type":"uint256","internalType":"uint256"}],"stateMutability":"view"},{"type":"function","name":"transfer","inputs":[{"name":"to","type":"address","internalType":"address"},{"name":"value","type":"uint256","internalType":"uint256"}],"outputs":[{"name":"","type":"bool","internalType":"bool"}],"stateMutability":"nonpayable"},{"type":"function","name":"transferFrom","inputs":[{"name":"from","type":"address","internalType":"address"},{"name":"to","type":"address","internalType":"address"},{"name":"value","type":"uint256","internalType":"uint256"}],"outputs":[{"name":"","type":"bool","internalType":"bool"}],"stateMutability":"nonpayable"},{"type":"event","name":"Approval","inputs":[{"name":"owner","type":"address","indexed":true,"internalType":"address"},{"name":"spender","type":"address","indexed":true,"internalType":"address"},{"name":"value","type":"uint256","indexed":false,"internalType":"uint256"}],"anonymous":false},{"type":"event","name":"Transfer","inputs":[{"name":"from","type":"address","indexed":true,"internalType":"address"},{"name":"to","type":"address","indexed":true,"internalType":"address"},{"name":"value","type":"uint256","indexed":false,"internalType":"uint256"}],"anonymous":false},{"type":"error","name":"ERC20InsufficientAllowance","inputs":[{"name":"spender","type":"address","internalType":"address"},{"name":"allowance","type":"uint256","internalType":"uint256"},{"name":"needed","type":"uint256","internalType":"uint256"}]},{"type":"error","name":"ERC20InsufficientBalance","inputs":[{"name":"sender","type":"address","internalType":"address"},{"name":"balance","type":"uint256","internalType":"uint256"},{"name":"needed","type":"uint256","internalType":"uint256"}]},{"type":"error","name":"ERC20InvalidApprover","inputs":[{"name":"approver","type":"address","internalType":"address"}]},{"type":"error","name":"ERC20InvalidReceiver","inputs":[{"name":"receiver","type":"address","internalType":"address"}]},{"type":"error","name":"ERC20InvalidSender","inputs":[{"name":"sender","type":"address","internalType":"address"}]},{"type":"error","name":"ERC20InvalidSpender","inputs":[{"name":"spender","type":"address","internalType":"address"}]}],"bytecode":{"object":"0x608060405234801561000f575f5ffd5b506040518060400160405280600b81526020017f477261706820546f6b656e0000000000000000000000000000000000000000008152506040518060400160405280600381526020017f4752540000000000000000000000000000000000000000000000000000000000815250816003908161008b919061059a565b50806004908161009b919061059a565b5050506100ba336b033b2e3c9fd0803ce80000006100bf60201b60201c565b61077e565b5f73ffffffffffffffffffffffffffffffffffffffff168273ffffffffffffffffffffffffffffffffffffffff160361012f575f6040517fec442f0500000000000000000000000000000000000000000000000000000000815260040161012691906106a8565b60405180910390fd5b6101405f838361014460201b60201c565b5050565b5f73ffffffffffffffffffffffffffffffffffffffff168373ffffffffffffffffffffffffffffffffffffffff1603610194578060025f82825461018891906106ee565b92505081905550610262565b5f5f5f8573ffffffffffffffffffffffffffffffffffffffff1673ffffffffffffffffffffffffffffffffffffffff1681526020019081526020015f205490508181101561021d578381836040517fe450d38c00000000000000000000000000000000000000000000000000000000815260040161021493929190610730565b60405180910390fd5b8181035f5f8673ffffffffffffffffffffffffffffffffffffffff1673ffffffffffffffffffffffffffffffffffffffff1681526020019081526020015f2081905550505b5f73ffffffffffffffffffffffffffffffffffffffff168273ffffffffffffffffffffffffffffffffffffffff16036102a9578060025f82825403925050819055506102f3565b805f5f8473ffffffffffffffffffffffffffffffffffffffff1673ffffffffffffffffffffffffffffffffffffffff1681526020019081526020015f205f82825401925050819055505b8173ffffffffffffffffffffffffffffffffffffffff168373ffffffffffffffffffffffffffffffffffffffff167fddf252ad1be2c89b69c2b068fc378daa952ba7f163c4a11628f55a4df523b3ef836040516103509190610765565b60405180910390a3505050565b5f81519050919050565b7f4e487b71000000000000000000000000000000000000000000000000000000005f52604160045260245ffd5b7f4e487b71000000000000000000000000000000000000000000000000000000005f52602260045260245ffd5b5f60028204905060018216806103d857607f821691505b6020821081036103eb576103ea610394565b5b50919050565b5f819050815f5260205f209050919050565b5f6020601f8301049050919050565b5f82821b905092915050565b5f6008830261044d7fffffffffffffffffffffffffffffffffffffffffffffffffffffffffffffffff82610412565b6104578683610412565b95508019841693508086168417925050509392505050565b5f819050919050565b5f819050919050565b5f61049b6104966104918461046f565b610478565b61046f565b9050919050565b5f819050919050565b6104b483610481565b6104c86104c0826104a2565b84845461041e565b825550505050565b5f5f905090565b6104df6104d0565b6104ea8184846104ab565b505050565b5b8181101561050d576105025f826104d7565b6001810190506104f0565b5050565b601f82111561055257610523816103f1565b61052c84610403565b8101602085101561053b578190505b61054f61054785610403565b8301826104ef565b50505b505050565b5f82821c905092915050565b5f6105725f1984600802610557565b1980831691505092915050565b5f61058a8383610563565b9150826002028217905092915050565b6105a38261035d565b67ffffffffffffffff8111156105bc576105bb610367565b5b6105c682546103c1565b6105d1828285610511565b5f60209050601f831160018114610602575f84156105f0578287015190505b6105fa858261057f565b865550610661565b601f198416610610866103f1565b5f5b8281101561063757848901518255600182019150602085019450602081019050610612565b868310156106545784890151610650601f891682610563565b8355505b6001600288020188555050505b505050505050565b5f73ffffffffffffffffffffffffffffffffffffffff82169050919050565b5f61069282610669565b9050919050565b6106a281610688565b82525050565b5f6020820190506106bb5f830184610699565b92915050565b7f4e487b71000000000000000000000000000000000000000000000000000000005f52601160045260245ffd5b5f6106f88261046f565b91506107038361046f565b925082820190508082111561071b5761071a6106c1565b5b92915050565b61072a8161046f565b82525050565b5f6060820190506107435f830186610699565b6107506020830185610721565b61075d6040830184610721565b949350505050565b5f6020820190506107785f830184610721565b92915050565b610fa88061078b5f395ff3fe608060405234801561000f575f5ffd5b50600436106100b2575f3560e01c806342966c681161006f57806342966c681461018c57806370a08231146101a857806379cc6790146101d857806395d89b41146101f4578063a9059cbb14610212578063dd62ed3e14610242576100b2565b806306fdde03146100b6578063095ea7b3146100d457806318160ddd1461010457806323b872dd14610122578063313ce5671461015257806340c10f1914610170575b5f5ffd5b6100be610272565b6040516100cb9190610bf6565b60405180910390f35b6100ee60048036038101906100e99190610ca7565b610302565b6040516100fb9190610cff565b60405180910390f35b61010c610324565b6040516101199190610d27565b60405180910390f35b61013c60048036038101906101379190610d40565b61032d565b6040516101499190610cff565b60405180910390f35b61015a61035b565b6040516101679190610dab565b60405180910390f35b61018a60048036038101906101859190610ca7565b610363565b005b6101a660048036038101906101a19190610dc4565b610371565b005b6101c260048036038101906101bd9190610def565b61037e565b6040516101cf9190610d27565b60405180910390f35b6101f260048036038101906101ed9190610ca7565b6103c3565b005b6101fc6103d1565b6040516102099190610bf6565b60405180910390f35b61022c60048036038101906102279190610ca7565b610461565b6040516102399190610cff565b60405180910390f35b61025c60048036038101906102579190610e1a565b610483565b6040516102699190610d27565b60405180910390f35b60606003805461028190610e85565b80601f01602080910402602001604051908101604052809291908181526020018280546102ad90610e85565b80156102f85780601f106102cf576101008083540402835291602001916102f8565b820191905f5260205f20905b8154815290600101906020018083116102db57829003601f168201915b5050505050905090565b5f5f61030c610505565b905061031981858561050c565b600191505092915050565b5f600254905090565b5f5f610337610505565b905061034485828561051e565b61034f8585856105b0565b60019150509392505050565b5f6012905090565b61036d82826106a0565b5050565b61037b338261071f565b50565b5f5f5f8373ffffffffffffffffffffffffffffffffffffffff1673ffffffffffffffffffffffffffffffffffffffff1681526020019081526020015f20549050919050565b6103cd828261071f565b5050565b6060600480546103e090610e85565b80601f016020809104026020016040519081016040528092919081815260200182805461040c90610e85565b80156104575780601f1061042e57610100808354040283529160200191610457565b820191905f5260205f20905b81548152906001019060200180831161043a57829003601f168201915b5050505050905090565b5f5f61046b610505565b90506104788185856105b0565b600191505092915050565b5f60015f8473ffffffffffffffffffffffffffffffffffffffff1673ffffffffffffffffffffffffffffffffffffffff1681526020019081526020015f205f8373ffffffffffffffffffffffffffffffffffffffff1673ffffffffffffffffffffffffffffffffffffffff1681526020019081526020015f2054905092915050565b5f33905090565b610519838383600161079e565b505050565b5f6105298484610483565b90507fffffffffffffffffffffffffffffffffffffffffffffffffffffffffffffffff81146105aa578181101561059b578281836040517ffb8f41b200000000000000000000000000000000000000000000000000000000815260040161059293929190610ec4565b60405180910390fd5b6105a984848484035f61079e565b5b50505050565b5f73ffffffffffffffffffffffffffffffffffffffff168373ffffffffffffffffffffffffffffffffffffffff1603610620575f6040517f96c6fd1e0000000000000000000000000000000000000000000000000000000081526004016106179190610ef9565b60405180910390fd5b5f73ffffffffffffffffffffffffffffffffffffffff168273ffffffffffffffffffffffffffffffffffffffff1603610690575f6040517fec442f050000000000000000000000000000000000000000000000000000000081526004016106879190610ef9565b60405180910390fd5b61069b83838361096d565b505050565b5f73ffffffffffffffffffffffffffffffffffffffff168273ffffffffffffffffffffffffffffffffffffffff1603610710575f6040517fec442f050000000000000000000000000000000000000000000000000000000081526004016107079190610ef9565b60405180910390fd5b61071b5f838361096d565b5050565b5f73ffffffffffffffffffffffffffffffffffffffff168273ffffffffffffffffffffffffffffffffffffffff160361078f575f6040517f96c6fd1e0000000000000000000000000000000000000000000000000000000081526004016107869190610ef9565b60405180910390fd5b61079a825f8361096d565b5050565b5f73ffffffffffffffffffffffffffffffffffffffff168473ffffffffffffffffffffffffffffffffffffffff160361080e575f6040517fe602df050000000000000000000000000000000000000000000000000000000081526004016108059190610ef9565b60405180910390fd5b5f73ffffffffffffffffffffffffffffffffffffffff168373ffffffffffffffffffffffffffffffffffffffff160361087e575f6040517f94280d620000000000000000000000000000000000000000000000000000000081526004016108759190610ef9565b60405180910390fd5b8160015f8673ffffffffffffffffffffffffffffffffffffffff1673ffffffffffffffffffffffffffffffffffffffff1681526020019081526020015f205f8573ffffffffffffffffffffffffffffffffffffffff1673ffffffffffffffffffffffffffffffffffffffff1681526020019081526020015f20819055508015610967578273ffffffffffffffffffffffffffffffffffffffff168473ffffffffffffffffffffffffffffffffffffffff167f8c5be1e5ebec7d5bd14f71427d1e84f3dd0314c0f7b2291e5b200ac8c7c3b9258460405161095e9190610d27565b60405180910390a35b50505050565b5f73ffffffffffffffffffffffffffffffffffffffff168373ffffffffffffffffffffffffffffffffffffffff16036109bd578060025f8282546109b19190610f3f565b92505081905550610a8b565b5f5f5f8573ffffffffffffffffffffffffffffffffffffffff1673ffffffffffffffffffffffffffffffffffffffff1681526020019081526020015f2054905081811015610a46578381836040517fe450d38c000000000000000000000000000000000000000000000000000000008152600401610a3d93929190610ec4565b60405180910390fd5b8181035f5f8673ffffffffffffffffffffffffffffffffffffffff1673ffffffffffffffffffffffffffffffffffffffff1681526020019081526020015f2081905550505b5f73ffffffffffffffffffffffffffffffffffffffff168273ffffffffffffffffffffffffffffffffffffffff1603610ad2578060025f8282540392505081905550610b1c565b805f5f8473ffffffffffffffffffffffffffffffffffffffff1673ffffffffffffffffffffffffffffffffffffffff1681526020019081526020015f205f82825401925050819055505b8173ffffffffffffffffffffffffffffffffffffffff168373ffffffffffffffffffffffffffffffffffffffff167fddf252ad1be2c89b69c2b068fc378daa952ba7f163c4a11628f55a4df523b3ef83604051610b799190610d27565b60405180910390a3505050565b5f81519050919050565b5f82825260208201905092915050565b8281835e5f83830152505050565b5f601f19601f8301169050919050565b5f610bc882610b86565b610bd28185610b90565b9350610be2818560208601610ba0565b610beb81610bae565b840191505092915050565b5f6020820190508181035f830152610c0e8184610bbe565b905092915050565b5f5ffd5b5f73ffffffffffffffffffffffffffffffffffffffff82169050919050565b5f610c4382610c1a565b9050919050565b610c5381610c39565b8114610c5d575f5ffd5b50565b5f81359050610c6e81610c4a565b92915050565b5f819050919050565b610c8681610c74565b8114610c90575f5ffd5b50565b5f81359050610ca181610c7d565b92915050565b5f5f60408385031215610cbd57610cbc610c16565b5b5f610cca85828601610c60565b9250506020610cdb85828601610c93565b9150509250929050565b5f8115159050919050565b610cf981610ce5565b82525050565b5f602082019050610d125f830184610cf0565b92915050565b610d2181610c74565b82525050565b5f602082019050610d3a5f830184610d18565b92915050565b5f5f5f60608486031215610d5757610d56610c16565b5b5f610d6486828701610c60565b9350506020610d7586828701610c60565b9250506040610d8686828701610c93565b9150509250925092565b5f60ff82169050919050565b610da581610d90565b82525050565b5f602082019050610dbe5f830184610d9c565b92915050565b5f60208284031215610dd957610dd8610c16565b5b5f610de684828501610c93565b91505092915050565b5f60208284031215610e0457610e03610c16565b5b5f610e1184828501610c60565b91505092915050565b5f5f60408385031215610e3057610e2f610c16565b5b5f610e3d85828601610c60565b9250506020610e4e85828601610c60565b9150509250929050565b7f4e487b71000000000000000000000000000000000000000000000000000000005f52602260045260245ffd5b5f6002820490506001821680610e9c57607f821691505b602082108103610eaf57610eae610e58565b5b50919050565b610ebe81610c39565b82525050565b5f606082019050610ed75f830186610eb5565b610ee46020830185610d18565b610ef16040830184610d18565b949350505050565b5f602082019050610f0c5f830184610eb5565b92915050565b7f4e487b71000000000000000000000000000000000000000000000000000000005f52601160045260245ffd5b5f610f4982610c74565b9150610f5483610c74565b9250828201905080821115610f6c57610f6b610f12565b5b9291505056fea2646970667358221220eef82f26b982ff32b139ce92a2e8ff79d27fdd9bd0a3fc4a52bdd39d3a19e61f64736f6c634300081b0033","linkReferences":{}},"methodIdentifiers":{"allowance(address,address)":"dd62ed3e","approve(address,uint256)":"095ea7b3","balanceOf(address)":"70a08231","burn(uint256)":"42966c68","burnFrom(address,uint256)":"79cc6790","decimals()":"313ce567","mint(address,uint256)":"40c10f19","name()":"06fdde03","symbol()":"95d89b41","totalSupply()":"18160ddd","transfer(address,uint256)":"a9059cbb","transferFrom(address,address,uint256)":"23b872dd"},"id":70}