{"abi":[{"type":"function","name":"currentEpoch","inputs":[],"outputs":[{"name":"","type":"uint256","internalType":"uint256"}],"stateMutability":"pure"}],"bytecode":{"object":"0x6080604052348015600e575f5ffd5b5060af80601a5f395ff3fe6080604052348015600e575f5ffd5b50600436106026575f3560e01c80637667180814602a575b5f5ffd5b60306044565b604051603b91906062565b60405180910390f35b5f6001905090565b5f819050919050565b605c81604c565b82525050565b5f60208201905060735f8301846055565b9291505056fea264697066735822122066434f91d0903b6c1f27650b12d051623835677f7fc03852bf3eb0146c1cf48a64736f6c634300081b0033","linkReferences":{}},"methodIdentifiers":{"currentEpoch()":"76671808"},"id":70}