{"abi":[{"type":"constructor","inputs":[{"name":"_graphToken","type":"address","internalType":"address"}],"stateMutability":"nonpayable"},{"type":"function","name":"collect","inputs":[{"name":"","type":"uint8","internalType":"uint8"},{"name":"payer","type":"address","internalType":"address"},{"name":"receiver","type":"address","internalType":"address"},{"name":"amount","type":"uint256","internalType":"uint256"},{"name":"dataService","type":"address","internalType":"address"},{"name":"dataServiceCut","type":"uint256","internalType":"uint256"},{"name":"receiverDestination","type":"address","internalType":"address"}],"outputs":[],"stateMutability":"nonpayable"},{"type":"function","name":"deposit","inputs":[{"name":"collector","type":"address","internalType":"address"},{"name":"receiver","type":"address","internalType":"address"},{"name":"amount","type":"uint256","internalType":"uint256"}],"outputs":[],"stateMutability":"nonpayable"},{"type":"function","name":"getEscrowAmount","inputs":[{"name":"payer","type":"address","internalType":"address"},{"name":"collector","type":"address","internalType":"address"},{"name":"receiver","type":"address","internalType":"address"}],"outputs":[{"name":"","type":"uint256","internalType":"uint256"}],"stateMutability":"view"},{"type":"function","name":"graphToken","inputs":[],"outputs":[{"name":"","type":"address","internalType":"contract IERC20"}],"stateMutability":"view"},{"type":"event","name":"Collected","inputs":[{"name":"payer","type":"address","indexed":true,"internalType":"address"},{"name":"receiver","type":"address","indexed":true,"internalType":"address"},{"name":"amount","type":"uint256","indexed":false,"internalType":"uint256"},{"name":"dataService","type":"address","indexed":true,"internalType":"address"},{"name":"dataServiceCut","type":"uint256","indexed":false,"internalType":"uint256"},{"name":"receiverDestination","type":"address","indexed":false,"internalType":"address"}],"anonymous":false},{"type":"event","name":"Deposited","inputs":[{"name":"sender","type":"address","indexed":true,"internalType":"address"},{"name":"collector","type":"address","indexed":true,"internalType":"address"},{"name":"receiver","type":"address","indexed":true,"internalType":"address"},{"name":"amount","type":"uint256","indexed":false,"internalType":"uint256"}],"anonymous":false}],"bytecode":{"object":"0x60a060405234801561000f575f5ffd5b5060405161102b38038061102b833981810160405281019061003191906100c9565b8073ffffffffffffffffffffffffffffffffffffffff1660808173ffffffffffffffffffffffffffffffffffffffff1681525050506100f4565b5f5ffd5b5f73ffffffffffffffffffffffffffffffffffffffff82169050919050565b5f6100988261006f565b9050919050565b6100a88161008e565b81146100b2575f5ffd5b50565b5f815190506100c38161009f565b92915050565b5f602082840312156100de576100dd61006b565b5b5f6100eb848285016100b5565b91505092915050565b608051610f0a6101215f395f81816102c7015281816103e80152818161060c01526108310152610f0a5ff3fe608060405234801561000f575f5ffd5b506004361061004a575f3560e01c80631230fa3e1461004e5780632c7824c41461006a5780638340f5491461009a578063b430c5ea146100b6575b5f5ffd5b6100686004803603810190610063919061091a565b6100d4565b005b610084600480360381019061007f91906109b7565b61054d565b6040516100919190610a16565b60405180910390f35b6100b460048036038101906100af9190610a2f565b61060a565b005b6100be61082f565b6040516100cb9190610ada565b60405180910390f35b835f5f8873ffffffffffffffffffffffffffffffffffffffff1673ffffffffffffffffffffffffffffffffffffffff1681526020019081526020015f205f3373ffffffffffffffffffffffffffffffffffffffff1673ffffffffffffffffffffffffffffffffffffffff1681526020019081526020015f205f8773ffffffffffffffffffffffffffffffffffffffff1673ffffffffffffffffffffffffffffffffffffffff1681526020019081526020015f205410156101c9576040517f08c379a00000000000000000000000000000000000000000000000000000000081526004016101c090610b4d565b60405180910390fd5b835f5f8873ffffffffffffffffffffffffffffffffffffffff1673ffffffffffffffffffffffffffffffffffffffff1681526020019081526020015f205f3373ffffffffffffffffffffffffffffffffffffffff1673ffffffffffffffffffffffffffffffffffffffff1681526020019081526020015f205f8773ffffffffffffffffffffffffffffffffffffffff1673ffffffffffffffffffffffffffffffffffffffff1681526020019081526020015f205f82825461028a9190610b98565b925050819055505f620f424083866102a29190610bcb565b6102ac9190610c39565b90505f81866102bb9190610b98565b90505f8211156103a0577f000000000000000000000000000000000000000000000000000000000000000073ffffffffffffffffffffffffffffffffffffffff1663a9059cbb86846040518363ffffffff1660e01b8152600401610320929190610c78565b6020604051808303815f875af115801561033c573d5f5f3e3d5ffd5b505050506040513d601f19601f820116820180604052508101906103609190610cd4565b61039f576040517f08c379a000000000000000000000000000000000000000000000000000000000815260040161039690610d49565b60405180910390fd5b5b5f8111156104c2575f5f73ffffffffffffffffffffffffffffffffffffffff168473ffffffffffffffffffffffffffffffffffffffff16146103e257836103e4565b875b90507f000000000000000000000000000000000000000000000000000000000000000073ffffffffffffffffffffffffffffffffffffffff1663a9059cbb82846040518363ffffffff1660e01b8152600401610441929190610c78565b6020604051808303815f875af115801561045d573d5f5f3e3d5ffd5b505050506040513d601f19601f820116820180604052508101906104819190610cd4565b6104c0576040517f08c379a00000000000000000000000000000000000000000000000000000000081526004016104b790610db1565b60405180910390fd5b505b8473ffffffffffffffffffffffffffffffffffffffff168773ffffffffffffffffffffffffffffffffffffffff168973ffffffffffffffffffffffffffffffffffffffff167f51d3286c20a8750d021355c9a52622c8a9554564ae228d9bb84949d30ed59c0b89888860405161053a93929190610dcf565b60405180910390a4505050505050505050565b5f5f5f8573ffffffffffffffffffffffffffffffffffffffff1673ffffffffffffffffffffffffffffffffffffffff1681526020019081526020015f205f8473ffffffffffffffffffffffffffffffffffffffff1673ffffffffffffffffffffffffffffffffffffffff1681526020019081526020015f205f8373ffffffffffffffffffffffffffffffffffffffff1673ffffffffffffffffffffffffffffffffffffffff1681526020019081526020015f205490509392505050565b7f000000000000000000000000000000000000000000000000000000000000000073ffffffffffffffffffffffffffffffffffffffff166323b872dd3330846040518463ffffffff1660e01b815260040161066793929190610e04565b6020604051808303815f875af1158015610683573d5f5f3e3d5ffd5b505050506040513d601f19601f820116820180604052508101906106a79190610cd4565b6106e6576040517f08c379a00000000000000000000000000000000000000000000000000000000081526004016106dd90610e83565b60405180910390fd5b805f5f3373ffffffffffffffffffffffffffffffffffffffff1673ffffffffffffffffffffffffffffffffffffffff1681526020019081526020015f205f8573ffffffffffffffffffffffffffffffffffffffff1673ffffffffffffffffffffffffffffffffffffffff1681526020019081526020015f205f8473ffffffffffffffffffffffffffffffffffffffff1673ffffffffffffffffffffffffffffffffffffffff1681526020019081526020015f205f8282546107a79190610ea1565b925050819055508173ffffffffffffffffffffffffffffffffffffffff168373ffffffffffffffffffffffffffffffffffffffff163373ffffffffffffffffffffffffffffffffffffffff167f4174a9435a04d04d274c76779cad136a41fde6937c56241c09ab9d3c7064a1a9846040516108229190610a16565b60405180910390a4505050565b7f000000000000000000000000000000000000000000000000000000000000000081565b5f5ffd5b5f60ff82169050919050565b61086c81610857565b8114610876575f5ffd5b50565b5f8135905061088781610863565b92915050565b5f73ffffffffffffffffffffffffffffffffffffffff82169050919050565b5f6108b68261088d565b9050919050565b6108c6816108ac565b81146108d0575f5ffd5b50565b5f813590506108e1816108bd565b92915050565b5f819050919050565b6108f9816108e7565b8114610903575f5ffd5b50565b5f81359050610914816108f0565b92915050565b5f5f5f5f5f5f5f60e0888a03121561093557610934610853565b5b5f6109428a828b01610879565b97505060206109538a828b016108d3565b96505060406109648a828b016108d3565b95505060606109758a828b01610906565b94505060806109868a828b016108d3565b93505060a06109978a828b01610906565b92505060c06109a88a828b016108d3565b91505092959891949750929550565b5f5f5f606084860312156109ce576109cd610853565b5b5f6109db868287016108d3565b93505060206109ec868287016108d3565b92505060406109fd868287016108d3565b9150509250925092565b610a10816108e7565b82525050565b5f602082019050610a295f830184610a07565b92915050565b5f5f5f60608486031215610a4657610a45610853565b5b5f610a53868287016108d3565b9350506020610a64868287016108d3565b9250506040610a7586828701610906565b9150509250925092565b5f819050919050565b5f610aa2610a9d610a988461088d565b610a7f565b61088d565b9050919050565b5f610ab382610a88565b9050919050565b5f610ac482610aa9565b9050919050565b610ad481610aba565b82525050565b5f602082019050610aed5f830184610acb565b92915050565b5f82825260208201905092915050565b7f496e73756666696369656e7420657363726f772062616c616e636500000000005f82015250565b5f610b37601b83610af3565b9150610b4282610b03565b602082019050919050565b5f6020820190508181035f830152610b6481610b2b565b9050919050565b7f4e487b71000000000000000000000000000000000000000000000000000000005f52601160045260245ffd5b5f610ba2826108e7565b9150610bad836108e7565b9250828203905081811115610bc557610bc4610b6b565b5b92915050565b5f610bd5826108e7565b9150610be0836108e7565b9250828202610bee816108e7565b91508282048414831517610c0557610c04610b6b565b5b5092915050565b7f4e487b71000000000000000000000000000000000000000000000000000000005f52601260045260245ffd5b5f610c43826108e7565b9150610c4e836108e7565b925082610c5e57610c5d610c0c565b5b828204905092915050565b610c72816108ac565b82525050565b5f604082019050610c8b5f830185610c69565b610c986020830184610a07565b9392505050565b5f8115159050919050565b610cb381610c9f565b8114610cbd575f5ffd5b50565b5f81519050610cce81610caa565b92915050565b5f60208284031215610ce957610ce8610853565b5b5f610cf684828501610cc0565b91505092915050565b7f446174612073657276696365207472616e73666572206661696c6564000000005f82015250565b5f610d33601c83610af3565b9150610d3e82610cff565b602082019050919050565b5f6020820190508181035f830152610d6081610d27565b9050919050565b7f5265636569766572207472616e73666572206661696c656400000000000000005f82015250565b5f610d9b601883610af3565b9150610da682610d67565b602082019050919050565b5f6020820190508181035f830152610dc881610d8f565b9050919050565b5f606082019050610de25f830186610a07565b610def6020830185610a07565b610dfc6040830184610c69565b949350505050565b5f606082019050610e175f830186610c69565b610e246020830185610c69565b610e316040830184610a07565b949350505050565b7f5472616e73666572206661696c656400000000000000000000000000000000005f82015250565b5f610e6d600f83610af3565b9150610e7882610e39565b602082019050919050565b5f6020820190508181035f830152610e9a81610e61565b9050919050565b5f610eab826108e7565b9150610eb6836108e7565b9250828201905080821115610ece57610ecd610b6b565b5b9291505056fea2646970667358221220df1890b7610ac7d46d953f9a01b51a3e88284013e53adebfe33513e5e44dc3a364736f6c634300081b0033","linkReferences":{}},"methodIdentifiers":{"collect(uint8,address,address,uint256,address,uint256,address)":"1230fa3e","deposit(address,address,uint256)":"8340f549","getEscrowAmount(address,address,address)":"2c7824c4","graphToken()":"b430c5ea"},"id":70}