{"abi":[{"type":"function","name":"getProviderTokensAvailable","inputs":[{"name":"serviceProvider","type":"address","internalType":"address"},{"name":"dataService","type":"address","internalType":"address"}],"outputs":[{"name":"","type":"uint256","internalType":"uint256"}],"stateMutability":"view"},{"type":"function","name":"setProvision","inputs":[{"name":"serviceProvider","type":"address","internalType":"address"},{"name":"dataService","type":"address","internalType":"address"},{"name":"tokens","type":"uint256","internalType":"uint256"}],"outputs":[],"stateMutability":"nonpayable"}],"bytecode":{"object":"0x6080604052348015600e575f5ffd5b506103038061001c5f395ff3fe608060405234801561000f575f5ffd5b5060043610610034575f3560e01c806308ce5f6814610038578063b663c23014610068575b5f5ffd5b610052600480360381019061004d91906101e4565b610084565b60405161005f919061023a565b60405180910390f35b610082600480360381019061007d919061027d565b610105565b005b5f5f5f8473ffffffffffffffffffffffffffffffffffffffff1673ffffffffffffffffffffffffffffffffffffffff1681526020019081526020015f205f8373ffffffffffffffffffffffffffffffffffffffff1673ffffffffffffffffffffffffffffffffffffffff1681526020019081526020015f2054905092915050565b805f5f8573ffffffffffffffffffffffffffffffffffffffff1673ffffffffffffffffffffffffffffffffffffffff1681526020019081526020015f205f8473ffffffffffffffffffffffffffffffffffffffff1673ffffffffffffffffffffffffffffffffffffffff1681526020019081526020015f2081905550505050565b5f5ffd5b5f73ffffffffffffffffffffffffffffffffffffffff82169050919050565b5f6101b38261018a565b9050919050565b6101c3816101a9565b81146101cd575f5ffd5b50565b5f813590506101de816101ba565b92915050565b5f5f604083850312156101fa576101f9610186565b5b5f610207858286016101d0565b9250506020610218858286016101d0565b9150509250929050565b5f819050919050565b61023481610222565b82525050565b5f60208201905061024d5f83018461022b565b92915050565b61025c81610222565b8114610266575f5ffd5b50565b5f8135905061027781610253565b92915050565b5f5f5f6060848603121561029457610293610186565b5b5f6102a1868287016101d0565b93505060206102b2868287016101d0565b92505060406102c386828701610269565b915050925092509256fea264697066735822122011f0e89bb7ca6290f9579025f476ab1eea16ef7e1c7fecd22c9bd0886fdf3c2064736f6c634300081b0033","linkReferences":{}},"methodIdentifiers":{"getProviderTokensAvailable(address,address)":"08ce5f68","setProvision(address,address,uint256)":"b663c230"},"id":40}